:101E200043483A2532642020566F6C3A25332E31D0
:101E300066560000000000000000000000000000E6
:041E4000000000009E
:10174200E4900BD0F0A312124800000000E4900BCA
:10175200D5F0A3F078D77C0B7D017BFF7A1E79331D
:10176200FE7F11121188121C05121D9F121E8A1271
:101772001BA4E4900BD0F0900BD5F0A3F0900BD506
:10178200E0FEA3E0FFC39408EE6480948050E3ADD2
:101792000774017E00A805088005C333CE33CED876
:1017A200F920E003021828AF05121ABC7E007C0063
:1017B2007D05121206AC06AD07E4120C85E4FBFAB5
:1017C200797F7843120BE3900BD112123C900BEB12
:1017D20074FFF0A3741EF0A37420F0900BD5E0FF09
:1017E200A3E0900BEECFF0A3EFF0900BD1E0FCA3BF
:1017F200E0FDA3E0FEA3E0FF900BF012123C7B01A0
:101802007A0B79D7121324900BD0E05403FD7B019D
:101812007A0B79D7E4FF1219A4900BD0E004F07F81
:10182200F47E01121E44900BD6E004F07006900B79
:07183200D5E004F002177F6E
:101E4400EF1FAA0670011E4A6013E4FCFDC3ED9463
:0D1E54003AEC940750EA0DBD00010C80F03F
:011E6100225E
:101E6200EF1FAA0670011E4A600A00007D031DEDE5
:041E720060EE80FAA4
:011E76002249
:101C05007F2C7E01121E4443BA8090FE02E0448080
:101C1500F090FE02E030E0F990FE00E0E4F0A3E091
:101C2500E4F053BA7F53FFEF7593FFF5947591FF79
:101C3500F5927595FFF59675B3FFF5B475C9FFF582
:101C4500CA75CBFFF5CC75E1FFF5E253B1FC53B294
:081C5500FC43B1FC53B2032271
:1000030062D009000020202020FF000000FF4020D4
:100013003018100010301808047F0000003F4040E3
:1000230040407800000404E424242526242424E406
:1000330006040000002010190D41817F0101050D08
:1000430038100000020202F212121E16121212F2ED
:1000530002020200000000FF41414141414141FFD2
:100063000000000010129272FE51910022CC000099
:10007300FF00000004020100FF0004040402020266
:10008300FF010100846424242F2424A424242F2486
:1000930024A4640040422222120A06FF060A122206
:1000A300224240004020D04C434448D8301000FC4A
:1000B3000000FF0000003F40404244437800000737
:1000C30020403F0000804020180680000718204091
:1000D30080000000010020702826212020243860A1
:1000E3000001010000101292929292929212120257
:1000F300FE0000000000003F101010103F00408081
:100103007F0000000000000000000000000000006D
:1001130000000000000000000000000000000000DC
:100123000000000000FC848484FC001010101010F8
:10013300FF101000003F1010103F00000106408028
:100143007F00000020102CE7242400F01010FF1083
:1001530010F000000101017F211100070202FF02DC
:1001630002070000100C048414640506F40404045C
:1001730004140C00048484444724140C070C142432
:100183004484040002FA8282FE804020504C434C97
:100193005020400008184884443F404458414E6072
:1001A300584740000000000000000000000000006D
:1001B300000000000000000000000000000000003C
:1001C300000000000000000000000000000000002C
:1001D300000000000000000000000000000000001C
:1001E300000000000000F0E0A0A050F0D0D01010FC
:1001F30020E0200000001F1F12161D1B1D1D1212E0
:10020300121F000000002020E020E02020404020BA
:10021300A0B000000011190D07011F1911121219C6
:10022300090C06000000206040C0A0E0B0B0E0A0D0
:10023300A00000000101190A06013F0A0B05070B84
:100243001818100000000000F0F0D0D0D0D0F0005B
:100253000000000000003E1A1B1A3E003E3E2B2AFF
:100263002A3E0200000000E0F0606060606060F021
:10027300600000000030101615111F11111F111519
:100283003630100000808080B0909090909090A0C5
:10029300808080800001080C0622203F1F00060496
:1002A3000911010000000000000000000000000030
:1002B300000000000000000000000000000000003B
:1002C300000000000000000000000000000000002B
:1002D30000000000610008000000000000000000B2
:1002E300000000000000000000000000000000000B
:1002F3000000000000000000F80800F80008F80003
:10030300033C0700073C0300F80800F80008F80066
:10031300033C0700073C0300F80800F80008F80056
:10032300033C0700073C030000000000000000003E
:10033300003030000000000008F8888888887000CA
:10034300203F2000030C30200070880808887000CC
:10035300001C222121221C00C03008080808380094
:1003630007182020201008000000000000000000F3
:100373000030300000000000C030080808083800D2
:100383000718202020100800E01008080810E000DB
:100393000F10202020100F0008F8F800F8F80800CC
:1003A300203F003F003F200000000000000000004D
:1003B300000000000000000000000000000000003A
:1003C300000000000000000000000000000000002A
:1003D30000000000000000006800000000000000B2
:1003E30000000000000000000000000000FE020208
:1003F30002020202003F20202020202000000000F3
:1004030000000000000000000000000000FE0202E7
:1004130002020202003F20202020202000FE0202D0
:1004230002020202003F20202020202000FE0202C0
:1004330002020202003F20202020202000FE0202B0
:1004430002020202003F20202020202000FE0202A0
:1004530002020202003F20202020202000FE020290
:1004630002020202003F2020202020200000000082
:100473000000000000000000000000000000000079
:100483000000000000000000000000000000000069
:1004930000000000000000000000000000FE020257
:1004A30002020202003F20202020202000000080C2
:1004B300C0C08000000E07033F3F030700FE020297
:1004C30002020202003F20202020202000FE020220
:1004D30002020202003F20202020202000FE020210
:1004E30002020202003F20202020202000FE020200
:1004F30002020202003F20202020202000FE0202F0
:1005030002020202003F20202020202000FE0202DF
:1005130002020202003F20202020202000FE0202CF
:1005230002020202003F20202020202000FE0202BF
:1005330002020202003F20202020202000FE0202AF
:1005430002020202003F20202020202000FE02029F
:1005530002020202003F20202020202000FE02028F
:1005630002020202003F20202020202000FE02027F
:1005730002020202003F20202020202000FE02026F
:1005830002020202003F20202020202000FE02025F
:1005930002020202003F2020202020200000000051
:1005A3000000000000000000000000000000000048
:1005B3000000000000000000000000000000000038
:1005C3000000000000000000000000000000000028
:1005D3000000000000000000000000000000000018
:1005E300000000000000000000000000000000F810
:1005F30000000000000000330000000000100C02A7
:10060300100C020000000000000000000040C07851
:1006130040C0780000043F04043F04000070888851
:10062300FC08300000182020FF211E00F008F08095
:100633006018000000310C031E211E0000F0088822
:10064300700000001E21232C1927211000120E0018
:10065300000000000000000000000000000000E0B7
:1006630018040200000000071820400000020418CC
:10067300E00000000040201807000000404080F028
:10068300804040000202010F01020200000000004E
:10069300E0000000000101010F0101010000000062
:1006A3000000000000907000000000000000000047
:1006B3000000000000010101010101000000000031
:1006C30000000000003030000000000000000000C7
:1006D300C0380400006018070000000000E01008A4
:1006E3000810E000000F102020100F000000101071
:1006F300F8000000000020203F20200000700808C0
:100703000808F000003028242221300000300808B7
:10071300088870000018202121221C00000080405E
:1007230030F8000000060524243F242400F88888BC
:10073300880808000019202020110E0000E010880E
:1007430088900000000F112020201F0000180808C7
:10075300886818000000003E01000000007088084F
:1007630008887000001C222121221C0000F00808C8
:100773000810E0000001122222110F00000000C047
:10078300C0000000000000303000000000000080C6
:1007930000000000000000E00000000000008040B6
:1007A300201008000001020408102000004040400F
:1007B3004040400000020202020202000008102032
:1007C3004080000000201008040201000070480867
:1007D300088870000000003037000000C030C828CF
:1007E300E810E000071827282F2817000000C0385A
:1007F300E0000000203C23020227382008F8888804
:1008030088700000203F202020110E00C03008080F
:1008130008083800071820202010080008F80808E6
:100823000810E000203F202020100F0008F88888DF
:10083300E8081000203F20202320180008F88888AB
:10084300E8081000203F200003000000C030080823
:100853000838000007182020221E020008F80800AC
:100863000008F808203F210101213F20000808F873
:10087300080800000020203F202000000000080896
:10088300F8080800C08080807F00000008F888C056
:1008930028180800203F20012638200008F8080007
:1008A30000000000203F20202020300008F8F8003E
:1008B300F8F80800203F013E013F200008F830C04F
:1008C3000008F808203F200007183F00E010080840
:1008D3000810E0000F10202020100F0008F808086F
:1008E3000808F000203F210101010000E010080882
:1008F3000810E0000F10282830504F0008F88888AF
:1009030088887000203F2000030C30200070880886
:10091300080838000038202121221C00180808F894
:10092300080818000000203F2000000008F8080015
:100933000008F808001F202020201F0008788800E6
:1009430000C83808000007380E01000008F800F856
:1009530000F8080000033E013E0300000818688009
:100963008068180820302C03032C30200838C80076
:10097300C83808000000203F2000000010080808C5
:10098300C83808002038262120201800000000FE67
:10099300020202000000007F40404000000438C013
:1009A30000000000000000010638C000000202023F
:1009B300FE000000004040407F00000000000402F1
:1009C300020400000000000000000000000000001E
:1009D300000000008080808080808080000202040C
:1009E3000000000000000000000000000000808004
:1009F3008000000000192424123F200010F0008022
:100A030080000000003F112020110E000000008034
:100A130080800000000E1120202011000000808043
:100A23008090F000001F202020103F2000008080D5
:100A330080800000001F242424241700008080E00D
:100A4300909020000020203F2020000000008080A4
:100A530080808000006B94949493600010F0008079
:100A630080800000203F210000203F2000809898D4
:100A7300000000000020203F202000000000008034
:100A83009898000000C08080807F000010F0000074
:100A930080808000203F240629302000001010F8B9
:100AA300000000000020203F202000008080808084
:100AB30080808000203F20003F20003F8080008016
:100AC30080800000203F210000203F200000808024
:100AD30080800000001F202020201F0080800080D5
:100AE3008000000080FF912020110E000000008094
:100AF30080008000000E11202091FF808080800004
:100B03008080800020203F212000010000008080A1
:100B1300808080000033242424241900008080E096
:100B2300808000000000001F202010008080000053
:100B330000808000001F202020103F208080800044
:100B43008080800000030C300C0300008080008054
:100B530080008080010E300C073806010080808001
:100B6300008080000020310E2E3120008080800024
:100B730000808080008186781806010000808080D4
:100B8300808080000021302C2221300000000000F2
:100B930000FC020200000000013E40400000000093
:100BA300FF00000000000000FF0000000202FC0044
:100BB3000000000040403E0100000000000201026E
:100BC300020402000000000000000000000000001A
:0C0BD30000000000000000000000000016
:101CAC00900BF5EFF07F0A7E00121E6253A0FB7FB3
:101CBC000A7E00121E6253A0F7758000900BF5E0AF
:101CCC0042807F647E00121E6243A0107F0A7E0059
:101CDC00121E6253A0EF7F0A7E00121E62758000F6
:011CEC0022D5
:101CED00900C18EFF0A3EDF0A3EBF07F0A7E00123D
:101CFD001E62900C18E0FF121EA67F0A7E00121EB7
:101D0D0062900C19E0FF121EAD7F0A7E00121E625A
:0F1D1D00900C1AE0FF121E9D7F0A7E00021E62CC
:071EA600EF44B8FF021CAC81
:071EAD00EF44C0FF021CAC72
:091E9D00EF543F4440FF021CAC6D
:071EB400EF443EFF021CACED
:041C5D00F583E0FF2C
:101C6100900BF5EFF07F0A7E00121E6243A0047F05
:101C71000A7E00121E6253A0F77F0A7E00121E62C6
:101C810053A0EF758000900BF5E042807F647E00E9
:101C9100121E6243A0107F0A7E00121E6253A0EF43
:0B1CA1007F0A7E00121E627580002288
:101D6B00EF14600C1460182402702853A0FE80033B
:101D7B0043A0017F0A7E00121E6253A0FD800D530B
:101D8B00A0FE7F0A7E00121E6243A0027F0A7E0025
:041D9B00121E622290
:101B3D00900BE8EFF0E4F0900BE8E0FFC394085051
:101B4D00557B08E4FD121DD77D01121DD07D0212BB
:101B5D001DD0900BE8E0FF7B087D03121DD7900B85
:101B6D00E8E0FF7B087D04121DD7900BE8E0FF7BBA
:101B7D00087D05121DD7900BE8E0FF7B087D06124E
:101B8D001DD7900BE8E0FF7B087D07121DD7900B4A
:071B9D00E8E004F080A12242
:101D2C00E4900C1BF0900C1BE0FFC39440502F531D
:101D3C00A0FEEF24C0FF121CAC43A00153A0FD90E9
:101D4C000C1BE0FFC374FE9FFF121CAC53A0FD7F65
:0E1D5C000A7E00121E62900C1BE004F080C78D
:011D6A002256
:101BA400121E777F0A7E00121E62E4FF121D6BE490
:101BB400FF121EB47F0A7E00121E62E4FF121D6B28
:101BC4007F01121EB47F0A7E00121E62E4FF121D02
:101BD4006BE4FF121B3D7F0A7E00121E62E4FF12BB
:101BE4001EAD7F0A7E00121E627F3F121EB47F0A62
:101BF4007E00121E62E4FF121B3D7F0A7E00021E5D
:011C0400627D
:071DD000900BE8E0FF7B0827
:041DD700AE07AC03A4
:101DDB00E4FFEED3940350030F80027F02ED25E066
:0E1DEB00FDEEC454F0FB900BECECF002183946
:1019A400900BE8EFF0A3EDF0A3EBF0A3EAF0A3E9CA
:0119B400F042
:1019B500E4A3F0A3F0900BEAE0FBA3E0FAA3E0F9BF
:1019C5001211AE6065900BE8E0D3940F4009E4F086
:1019D500900BEEE02402F0900BE8E0FEC394089033
:1019E5000BED50057401F080037402F0900BEDE0EF
:1019F500FF900BE9E025E0FD900BEEE02DFDEE7587
:101A0500F008A4FBC003900BEAE0FBA3E475F0012A
:101A1500121218A9F0FA1211AE900BF2F0D00312BF
:0A1A25001906900BE8E004F0808B36
:011A2F002294
:0B183900900BE9EFF0A3EDF0A3EBF043
:101844007F3F121EB4900BE9E0FF121D6B900BEB6F
:10185400E0543FF0900BEAE0FF121EA6900BEBE081
:10186400FF121E9DE4900BEDF0A3F0900BEDE0FE53
:10187400A3E0FFC39410EE64809480502D900BEC91
:10188400E075F020A42FF582E5F03EF583E582248F
:1018940000F582E5833409121C5D900BEEE004F040
:1018A40070C9900BEDE004F080C1900BEAE004FFF6
:1018B400121EA6900BEBE0FF121E9DE4900BEDF0C0
:1018C400A3F0900BEDE0FEA3E0FFC39410EE648060
:1018D4009480502D900BECE075F020A42FF582E558
:1018E400F03EF583E5822410F582E5833409121C69
:1018F4005D900BEEE004F070C9900BEDE004F08015
:01190400C121
:0119050022BF
:08190600900BF0EDF0A3EBF0F3
:10190E00A3E0900BF4F0121D6B900BF1E0543FF03E
:10191E00900BF0E0FF121EA6900BF1E0FF121E9D41
:10192E00E4900BF3F0900BF3E0FFC394085023A365
:10193E00E075F010A42FF582E435F0F583E58224EE
:10194E0000F582E5833400121C5D900BF3E004F089
:10195E0080D3900BF0E004FF121EA6900BF1E0FF77
:10196E00121E9DE4900BF3F0900BF3E0FFC394086E
:10197E005023A3E075F010A42FF582E435F0F58323
:10198E00E5822408F582E5833400121C5D900BF38A
:05199E00E004F080D31D
:0119A3002221
:101E77007593007594005395E05396E075A000752F
:031E8700800022B6
:101D9F0075BA8090FFF2E4F090FFF0F0A37412F0A8
:101DAF0090FF10E4F0A37412F0A3E4F0A37409F011
:101DBF00A37488F0E4F5BA75FE805391FD43920247
:011DCF0022F1
:101E8A0075CB0075CC0043CB0253CCFD75E1FF75D1
:031E9A00E2002241
:101ABC00E4900BE8F0EF30E00543E810800353E8C6
:101ACC00EFEFC31330E00543E820800353E8DFEF6A
:101ADC001313543F30E00543E840800353E8BF7FC5
:101AEC00027E00121E6243E8807F027E00121E629C
:101AFC0043E8017F027E00121E6253E87F7F027E64
:101B0C0000121E6253E8FE7F147E00121E6220E952
:101B1C00FD43E8047F967E00121E62900BE8E5F808
:101B2C00F07F327E00121E6253E8FB900BE8E0FF60
:011B3C002286
:100BE000020CFDEC5D046005E859047003020CF38F
:100BF000120CBE580460F6EC4860F2EC7004FDFE86
:100C0000FF22C860DB2481C85009C39860025006E7
:100C1000020CFA9850CAF582E9294B4A7005AB825A
:100C2000020CE975F0007C1A7880C3EF9BEE9AED18
:100C300099400DC3EF9BFFEE9AFEED99FDE842F05F
:100C4000DC23ACF0D0E0FFD0E0FED0E0FDAB8220B2
:100C5000E7101BEB60BAEC2CFCEF33FFEE33FEED3C
:100C600033FD020CD5E803F830E705C0F075F0005D
:100C7000EF2FFFEE33FEED33FD40B830E7C280AA20
:100C800075F020800E75F010800575F0087D007EEF
:100C9000007F003392D530D50312122EEC33401072
:100CA000EF33FFEE33FEED33FDEC33FCD5F0ED22F8
:0E0CB000E5F0247EA2D513CC92E7CDCEFF2234
:1012BF00E50824EBF582E4340BF583E00508229072
:1012CF000BE8300703900BEBE475F0011212790273
:1012DF0011AE2000E97F2ED2008018EF540F24901A
:1012EF00D43440D4FF30040BEF24BFB41A005003A2
:1012FF002461FFE50960021509050CE50C70020574
:10130F000B30070E900BE8E475F001121279EF0223
:10131F0011F4021DF97403D2078003E4C207F50824
:10132F00900BE8121290E4F509F50BF50CE5096046
:10133F00077F2012130280F5750AFFC201C200C297
:10134F0002C203C205C206C2081212CEFF700D30D0
:10135F0007057F00121313AF0CAE0B22B4255FC22B
:10136F00D5C2041212CEFF24D0B40A00501A75F061
:10137F000A780930D50508B6FF0106C6A426F6205F
:10138F00D5047002D20380D924CFB41A00EF5004D1
:10139F00C2E5D204021605D20180C6D20080C0D2A7
:1013AF000280BCD2D580BAD20580B47F201213023E
:1013BF002002077401B5090040F11212BFFF12138A
:1013CF000202133CD208D20680951212BFFB1212F2
:1013DF00BFFA1212BFF94A4B700679037A177BFFD7
:1013EF0020022EE509602A7E008E8275830012117D
:1013FF00C760060EEE650A70F0C2D5EBC0E0EAC01A
:10140F00E0E9C0E0EE121666D0E0F9D0E0FAD0E0E5
:10141F00FB1211AEFF60AAEBC0E0EAC0E0E9C0E04A
:10142F00121302D0E02401F9D0E03400FAD0E0FB2F
:10143F00E50A0460DCD50AD98087D20280A2121691
:10144F004860F7E50A700104120D08A90A600DE55E
:10145F000A600914F50A1216F0EF60F3EA30E7029A
:10146F00F404C3995079EAF4250A0430E701E4043F
:10147F00F50A800D12164860C1EA050A250A120DF9
:10148F0008EA900C17F030E701E4250A04D50A04A6
:10149F0020050114121666E4C0E01216F0900C1726
:1014AF00E0601320E70714F01212EA802204F0D054
:1014BF00E014C0E07F001212EAE50A60071212E1A1
:1014CF00150A800B3005031212E1D0E002133CD055
:1014DF00E00480C4121648609EE50A04120D0890BD
:1014EF000C17EAF0E50A2005026001042404121625
:0114FF006686
:1015000074FF04C0E01216F01212EAE50A20050288
:1015100060031212E1D0E0B50AE87F451212F490A0
:101520000C17E07F2B30E7047F2DF404C0E012138A
:1015300002D0E075F00A84C0F01212EBD0E0121273
:10154000EB02133C791080027908C206C2088008B9
:10155000D2D5790A8004790AC2D5E50A047002F569
:101560000AE4FAFDFEFF1212BFFC7B0820011312F1
:1015700012BFFD7B1030000A1212BFFE1212BFFF15
:101580007B20EC3382D592D55013C3E43000069F04
:10159000FFE49EFEE42001039DFDE49CFCE4CBF807
:1015A000C201EC700CCFCECDCCE824F8F870F380FB
:1015B00017C3EF33FFEE33FEED33FDEC33FCEB33BB
:1015C000FB994002FB0FD8E9EB300105F8D0E0C4ED
:1015D00048B201C0E00AEC4D4E4F78207B0070C24B
:1015E000EAB50A0040BCC0E0121668D0F0D0E02096
:1015F0000104C4C0E0C4B201C0F01212EBD0F0D5B7
:10160000F0EB02133C12129913D95315445813AA44
:101610004C13A64215484F15504415504913BF436B
:1016200015565514834614E345144D47172350139C
:10163000AE2D13B22E13D52B13B62313D320170CB4
:101640002A136E48000013CDE50AB4FF03750A069D
:101650001212BFFC1212BFFD1212BFFE1212BFFF08
:10166000900C10020D45790AA2D52003143005090B
:10167000B910020404B9080104A2D52006025001E1
:10168000042002689202B509005034C0E07F203087
:1016900003197F30A20272067205500F1216BFC2E4
:1016A00002C206C205C2087F30800F300503E9C0C0
:1016B000E0121302300503D0E0F9D0E0B509CC30D8
:1016C00005177F30B9100C1213027F583004077FC2
:1016D000788003B908031213023002057F2D02132C
:1016E000027F202008F87F2B2006F322920280CF71
:1016F0007F00B40700500B2410F582E4340CF5830E
:10170000E0FF22286E756C6C2900D2011212BF30E6
:1017100001F8C201780930D50108F602136E2D5088
:101720004349581212BF2403B405004001E4901746
:101730001E931212F3743A1212F3D20375090402C3
:0217400015444E
:100CBE00E9D2E7C933E833F892D5EDD2E7CD33EC7C
:070CCE0033FC5002B2D522F5
:100CD500EC30E7100FBF000C0EBE00080DBD000480
:100CE5000BEB6014A2D5EB13FCED92E7FD2274FF2C
:100CF500FCFDFEFF22E480F8A2D574FF13FC7D8085
:030D0500E480EF98
:100D0800F920E73624F950037907E4F42402FBE5D7
:100D180082158270021583DBF6E024FB501BE96024
:100D280014E4F0E582158270021583E004F0B40A39
:0D0D380008E4F0D9EE7401F00A22C2D522C1
:100D4500ED33EC3392D5FA602AB4FF33EDC2E77B7D
:100D5500FF60067A0D796AE4227A0D797320D5044D
:100D65007A0D796E224E614E002B494E46002D4973
:100D75004E4600E47A08F0A3DAFC7B00740722C033
:100D850083C082ECC0E0EDC0E0EEC0E0EFC0E0EA79
:100D950075F010A4CAABF075F04DA42BFBE435F04B
:100DA500FCEA2410FAEB34C5FBEC34D9FCEDC2E7C0
:100DB500FF75F056A4F42411C5F0F434C58FF0A4E2
:100DC5002AE5F03BE43CF020E714121078D0E0FF70
:100DD500D0E0FED0E0FDD0E0FC120BE38014F4047B
:100DE500121078D0E0FFD0E0FED0E0FDD0E0FC129C
:100DF5000F42D082D083E0FAEDD2E7CD33EC332435
:100E050082FBE4C3CF33CFCE33CECD33CD33DBF34B
:100E15007B0775F00A846004F0A31B0AE5F0F0A3D4
:100E25008FF0740AA4FFACF08EF0740AA42CFEAC0B
:100E3500F050010C8DF0740AA42CFDE435F0F0A3FC
:050E4500DBDE74072252
:100E4A00020CF3E86480F8E933E83360110460F0D7
:100E5A00ED33EC337009E8FCE9FDEAFEEBFF22040E
:100E6A0060DED3EB9FEA9EE99DE8C2E78CF0C2F709
:100E7A0095F0400CE8CCF8E9CDF9EACEFAEBCFFBD5
:100E8A00120CBE85D0F05804700320D5B3E8047064
:100E9A00075002B2D5020CFD92D5EC0460F7E4CCFF
:100EAA00C0E0C398F8603B94186008400DD0E0FB9E
:100EBA00020CD5E4FBFAC9FC8028E830E406E4C950
:100ECA00FBE4CAFCE830E305E4C9CACBFCE85407F2
:100EDA006010F8C3E913F9EA13FAEB13FBEC13FCFD
:100EEA00D8F130F52FC3E49CFCEF9BFFEE9AFEEDA0
:100EFA0099FDD0E0FBEF4E4D4C701222DB03020C41
:100F0A00FAEC2CFCEF33FFEE33FEED33FDED30E768
:100F1A00EB020CD5EF2BFFEE3AFEED39FDD0E0FBEC
:100F2A0050130BBB0003020CFDED13FDEE13FEEF95
:080F3A0013FFEC13FC020CD5BF
:100F4200EC4D6011E8497017ED33EC3304600DE4A9
:100F5200FCFFFEFD22E933E8330470F8020CF312C1
:100F62000CBE58046009E4CC2481500628500902C2
:100F72000CFD284003020CFAC0E0EB4A7044B98031
:100F820006D0E0FB020CE9EF4E701CBD8008EBFFBF
:100F9200EAFEE9FD80EBE98DF0A4FEE5F002102BFC
:100FA200E9CDF9EAFEEBFFEF89F0A4FCE5F0CE898A
:100FB200F0A42EFFE435F0CD89F0A42DFEE435F047
:100FC2008067EF4E7005BD80D780C3EF8BF0A4AC75
:100FD200F0EE8BF0A42CFCE435F0F8EF8AF0A42CB0
:100FE200E5F038FCE433CB8DF0A42CFCE5F03BF8C3
:100FF200EE8AF0A42CFCE5F038F8E433CF89F0A4B3
:101002002CFCE5F038CF3400CE89F0A42FFFE5F0B8
:101012003EFEE433C98DF0A42EFEE5F039CD8AF010
:10102200A42FFFE5F03EFEE43DFD33D0E0FB500788
:101032000BBB000F020CFDEC2CFCEF33FFEE33FE7A
:06104200ED33FD020CD5A8
:101048003F8000004120000042C80000447A0000B0
:10105800461C400047C35000497424004B18968032
:101068004CBEBC205A0E1BCA6753C21C749DC5AE29
:10107800FB60065407601C23231210A6EB5438604B
:10108800091210921210A1120F42ECF8EDF9EEFAC3
:10109800EFCB22EB1210A180F1543803241C9010DE
:1010A80048FE93FC0EEE93FD0EEE930ECE93FF22B8
:03000000021A30B1
:0C1A3000787FE4F6D8FD758121021A775A
:1010B800E709F608DFFA8046E709F208DFFA803E1A
:1010C80088828C83E709F0A3DFFA8032E309F60807
:1010D800DFFA8078E309F208DFFA807088828C836F
:1010E800E309F0A3DFFA806489828A83E0A3F60823
:1010F800DFFA805889828A83E0A3F208DFFA804CFD
:1011080080D280FA80C680D4806980F280338010D3
:1011180080A680EA809A80A880DA80E280CA80333C
:1011280089828A83ECFAE493A3C8C582C8CCC583B4
:10113800CCF0A3C8C582C8CCC583CCDFE9DEE78084
:101148000D89828A83E493A3F608DFF9ECFAA9F003
:10115800EDFB2289828A83ECFAE0A3C8C582C8CC59
:10116800C583CCF0A3C8C582C8CCC583CCDFEADE72
:10117800E880DB89828A83E493A3F208DFF980CCD4
:1011880088F0EF60010E4E60C388F0ED2402B404CD
:101198000050B9F582EB2402B4040050AF23234574
:0611A80082239011087380
:1011AE00BB010689828A83E0225002E722BBFE023F
:0911BE00E32289828A83E4932272
:1011C700BB010CE58229F582E5833AF583E02250DD
:1011D70006E92582F8E622BBFE06E92582F8E22227
:0D11E700E58229F582E5833AF583E4932241
:1011F400BB010689828A83F0225002F722BBFE01DA
:02120400F322D3
:10120600EF8DF0A4A8F0CF8CF0A428CE8DF0A42EFC
:02121600FE22B6
:10121800A3F8E0C5F025F0F0E58215827002158389
:06122800E0C838F0E822E6
:0E122E00C3E49FFFE49EFEE49DFDE49CFC22D1
:0C123C00ECF0A3EDF0A3EEF0A3EFF02225
:10124800A8828583F0D083D08212125F12125F12B7
:10125800125F12125FE473E493A3C583C5F0C583DC
:10126800C8C582C8F0A3C583C5F0C583C8C582C8F0
:011278002253
:10127900F8E0FBA3A3E0F925F0F0E58215827002FE
:071289001583E0FA38F022A2
:09129000EBF0A3EAF0A3E9F0225F
:10129900D083D082F8E4937012740193700DA3A3E4
:1012A90093F8740193F5828883E4737402936860F8
:0612B900EFA3A3A380DFF8
:101DF900EFB40A07740D121E04740A309811A899D9
:101E0900B8130CC2983098FDA899C298B811F63049
:071E190099FDC299F5992221
:101A3C00021742E493A3F8E493A34003F68001F267
:101A4C0008DFF48029E493A3F85407240CC8C333AB
:101A5C00C4540F4420C8834004F456800146F6DF7A
:101A6C00E4800B0102040810204080900003E47E07
:101A7C00019360BCA3FF543F30E509541FFEE4936F
:101A8C00A360010ECF54C025E060A840B8E493A336
:101A9C00FAE493A3F8E493A3C8C582C8CAC583CA61
:101AAC00F0A3C8C582C8CAC583CADFE9DEE780BE19
:010BDF000015
:00000001FF
