:1000030000F700F700EF00FB00DF00FD000300E056
:10001300007B00EF007B00EF000300E0007B00EFBC
:10002300007B00EF000300E0007F00FF007F00FF84
:1000330000000080007F00FF007F00FF007F00FFC3
:1000430000FF00FD00F700FD00F700FD00F700FDD5
:1000530000F700FD000700C000F700FF00F700FFF6
:1000630000F700FF000700F800F700FB00F700FBB4
:1000730000F700FB00FB00FB00FB00FB00FD00FBA7
:1000830000F700FF007700F0007700F7007700F734
:10009300004000F7007700F7007300F7006300F7F4
:1000A300005500F7005500F7007600F7007700B71A
:1000B300007700B700B700B700B7008F00D700FF85
:1000C30000BF00FF007F00FF0001008000FD00BFB4
:1000D30000EE00DE00DF00FE00DF00FE00F700FEA2
:1000E30000EF00FE00EF00FE00000080007F00FD37
:1000F30000BF00FB00DF00F700E700EF00F900DFBF
:10010300007F00DF007B00DB007700DB007700DB94
:10011300007F00DB007F00DB007000DB007700DB8B
:10012300007700DB007700DB007700DB005700DBA4
:10013300006700DB00B700DB00BF00DF00DF00DF8C
:1001430000EF00FB00ED00FB002B008000EF00FB45
:1001530000E700FB00EB00FB006C00C000AF00FFFA
:10016300007F00FF00000080005F00FF00CF00EE73
:1001730000D300F5005C00F3009F008F00DF00FF59
:10018300000100C000DD00DD000100C0007F00FFB2
:10019300000100C0007F00FF000700F000F700F738
:1001A300000700F000F700F7000700F000F700F782
:1001B300000700F000F700F70000008000FF00FFD9
:1001C3001202A3120319E4900000F0E4900004F07B
:1001D300A3F0E4F590F5B090000204F0A3F0E490EE
:1001E3000001F0900000E0FF75F040A42403F582C5
:1001F300E5F03400F583C083C082900001E0FED0B7
:1002030082D08375F00412033BE4740193F5807587
:10021300F040EFA42405F582E5F03400F58375F092
:1002230004EE12033B740193F5A0900001E0C39424
:10023300085013A3E042907F017E001202FBE4F515
:10024300909000028015900003E04590F5B07F0187
:100253007E001202FBE4F5B0900003E025E0F0908D
:100263000001E004F0E0C3941050030201E69000A3
:1002730005E004F07006900004E004F0C39000056C
:10028300E09464900004E0940050030201D59000D0
:1002930000E004F0E0C3940750030201CE0201C959
:1002FB00EF1FAA0670011E4A6013E4FCFDC3ED94C8
:0D030B003AEC940750EA0DBD00010C80F0A3
:0103180022C2
:1002A3007F2C7E011202FB43BA8090FE02E0448061
:1002B300F090FE02E030E0F990FE00E0E4F0A3E00D
:1002C300E4F053BA7F53FFEF7593FFF5947591FFF5
:1002D300F5927595FFF59675B3FFF5B475C9FFF5FE
:1002E300CA75CBFFF5CC75E1FFF5E253B1FC53B210
:0802F300FC43B1FC53B20322ED
:10031900E4F5937594FFF5917592FFF5957596FF40
:06032900F5B175B2FF22E0
:0300000002032FC9
:0C032F00787FE4F6D8FD7581070201C359
:0C033B00A42582F582E5F03583F58322CD
:00000001FF
