:1001E10031363032204C43442054455354204F4B38
:1001F1000048454C4C4F2045564552594F4E4521DC
:020201002100DA
:1000F90078007C007D017BFF7A0179E17E007F1128
:100109001200D378117C007D017BFF7A0179F27EA0
:10011900007F111200D31201891202217F8012027D
:100129004EE4900022F0900022E0FFC39428501E74
:1001390074002FF582E43400F583E0FF12023C7F5E
:10014900057E00120203900022E004F080D87FC0EF
:1001590012024EE4900022F0900022E0FFC394289E
:1001690050BA74112FF582E43400F583E0FF1202CE
:100179003C7F057E00120203900022E004F080D843
:10020300EF1FAA0670011E4A6013E4FCFDC3ED94C0
:0D0213003AEC940750EA0DBD00010C80F09C
:0102200022BB
:100189007F2C7E0112020343BA8090FE02E0448074
:10019900F090FE02E030E0F990FE00E0E4F0A3E028
:1001A900E4F053BA7F53FFEF7593FFF5947591FF10
:1001B900F5927595FFF59675B3FFF5B475C9FFF519
:1001C900CA75CBFFF5CC75E1FFF5E253B1FC53B22B
:0801D900FC43B1FC53B2032208
:0D0260007593007594FF5391F843920722A7
:10023C00D290C2918F80D2927F057E00120203C2AF
:02024C009222FC
:10024E00C290C2918F80D2927F057E00120203C2AD
:02025E009222EA
:10022100120260C291C2907F0112024E7F38120207
:0B0231004E7F0C12024E7F0602024EB0
:0300000002026D8C
:0C026D00787FE4F6D8FD7581070200F9E7
:10000300E709F608DFFA8046E709F208DFFA803EDF
:1000130088828C83E709F0A3DFFA8032E309F608CC
:10002300DFFA8078E309F208DFFA807088828C8334
:10003300E309F0A3DFFA806489828A83E0A3F608E8
:10004300DFFA805889828A83E0A3F208DFFA804CC2
:1000530080D280FA80C680D4806980F28033801099
:1000630080A680EA809A80A880DA80E280CA803302
:1000730089828A83ECFAE493A3C8C582C8CCC5837A
:10008300CCF0A3C8C582C8CCC583CCDFE9DEE7804A
:100093000D89828A83E493A3F608DFF9ECFAA9F0C9
:1000A300EDFB2289828A83ECFAE0A3C8C582C8CC1F
:1000B300C583CCF0A3C8C582C8CCC583CCDFEADE38
:1000C300E880DB89828A83E493A3F208DFF980CC9A
:1000D30088F0EF60010E4E60C388F0ED2402B40493
:1000E3000050B9F582EB2402B4040050AF2323453A
:0600F3008223900053730C
:00000001FF
