:10017D00E4900000F01200EF1201F07D907F031269
:10018D0000037F0A7E001201B0E4FF120086AD0766
:10019D007F01120003E4FF120086AD077F021200FB
:0301AD000380E6E6
:1001B000EF1FAA0670011E4A6013E4FCFDC3ED9414
:0D01C0003AEC940750EA0DBD00010C80F0F0
:0101CD00220F
:1000EF007F2C7E011201B043BA8090FE02E0448063
:1000FF00F090FE02E030E0F990FE00E0E4F0A3E0C3
:10010F00E4F053BA7F53FFEF7593FFF5947591FFAA
:10011F00F5927595FFF59675B3FFF5B475C9FFF5B3
:10012F00CA75CBFFF5CC75E1FFF5E253B1FC53B2C5
:08013F00FC43B1FC53B20322A2
:0F01CE0053B3F043B40FD2C0D2C1D2C2D2C322B6
:0701E90043B10C53B2F322F5
:100147009000037401F0A2B382B240277F0A7E00B9
:100157001201B0A2B382B2401420B2089000037417
:1001670001F0800920B3069000037402F0900003A9
:05017700E0FF227F0003
:01017C002260
:0701F00053B1E043B21F22EE
:0701F7007595FF75960022CB
:0701FE007595007596FF22C4
:10000300900001EFF0A3EDF01201FE900001E0700B
:1000130017C2B2C2B3C2B4D2B0A3E0F5A0C2B17FDB
:100023000A7E001201B0D2B1900001E0B40117C200
:10003300B2C2B3D2B4D2B0A3E0F5A0C2B17F0A7EFC
:10004300001201B0D2B1900001E0B40217C2B2D2E3
:10005300B3C2B4D2B0A3E0F5A0C2B17F0A7E00124E
:1000630001B0D2B1900001E0B40317C2B2D2B3D24F
:10007300B4D2B0A3E0F5A0C2B17F0A7E001201B0F2
:03008300D2B122D5
:05008600900001EFF005
:10008B001201F7E07018C2B2C2B3C2B4D2B1C2B09F
:10009B007F0AFE1201B0900002E5A0F0D2B09000F2
:1000AB0001E0B40119C2B2C2B3D2B4D2B1C2B07FB3
:1000BB000A7E001201B0900002E5A0F0D2B09000D1
:1000CB0001E0B40219C2B2D2B3C2B4D2B1C2B07F92
:1000DB000A7E001201B0900002E5A0F0D2B09000B1
:0300EB0002E0FF31
:0100EE0022EF
:030000000201DD1D
:0C01DD00787FE4F6D8FD75810702017DF3
:00000001FF
