:0300000002011EDC
:0C011E00787FE4F6D8FD75810902010924
:100003000509E509700205087F017E001200EBE592
:10001300098508F01200BE0042000100460064009A
:100023004A00C8004C012C00500190005401F40018
:10003300580258004A02BC006003200000006575A6
:1000430090F7227590FB2280107590FE227590EF39
:100053002275907F227590BF227590FD22E4F508EA
:02006300F5099D
:010065002278
:100109001200667591007592FF1200037F647E00EC
:050119001200EB80F470
:1000EB00EF1FAA0670011E4A6013E4FCFDC3ED94DA
:0D00FB003AEC940750EA0DBD00010C80F0B6
:0101080022D4
:100066007F2C7E011200EB43BA8090FE02E04480B2
:10007600F090FE02E030E0F990FE00E0E4F0A3E04C
:10008600E4F053BA7F53FFEF7593FFF5947591FF34
:10009600F5927595FFF59675B3FFF5B475C9FFF53D
:1000A600CA75CBFFF5CC75E1FFF5E253B1FC53B24F
:0800B600FC43B1FC53B203222C
:1000BE00D083D082F8E4937012740193700DA3A3D1
:1000CE0093F8740193F5828883E473740293B5F008
:0D00DE00067403936860E9A3A3A3A380D870
:00000001FF
