:1000790012000312009FD2907F2C7E0112005BC2F6
:0A008900907F2C7E0112005B80ECDA
:10005B00EF1FAA0670011E4A6013E4FCFDC3ED946A
:0D006B003AEC940750EA0DBD00010C80F046
:010078002265
:100003007F2C7E0112005B43BA8090FE02E04480A5
:10001300F090FE02E030E0F990FE00E0E4F0A3E0AF
:10002300E4F053BA7F53FFEF7593FFF5947591FF97
:10003300F5927595FFF59675B3FFF5B475C9FFF5A0
:10004300CA75CBFFF5CC75E1FFF5E253B1FC53B2B2
:08005300FC43B1FC53B203228F
:09009F005391FE439201C290222C
:0300000002009368
:0C009300787FE4F6D8FD75810702007943
:00000001FF
