:10007900E4900000F01200031200AFD292C292D2B3
:0D00890092120096900000EFF0F58080EEDE
:10005B00EF1FAA0670011E4A6013E4FCFDC3ED946A
:0D006B003AEC940750EA0DBD00010C80F046
:010078002265
:100003007F2C7E0112005B43BA8090FE02E04480A5
:10001300F090FE02E030E0F990FE00E0E4F0A3E0AF
:10002300E4F053BA7F53FFEF7593FFF5947591FF97
:10003300F5927595FFF59675B3FFF5B475C9FFF5A0
:10004300CA75CBFFF5CC75E1FFF5E253B1FC53B2B2
:08005300FC43B1FC53B203228F
:0D00AF00E4F5937594FF7591027592FD22A2
:10009600E4FFFEEF25E0FFD290C2903091034401C9
:0800A600FFD2900EEEB408EB4E
:0100AE00222F
:030000000200BC3F
:0C00BC00787FE4F6D8FD7581070200791A
:00000001FF
