:10005B00E4900000F01200031200E8E4900000F0BE
:10006B007F327E00120094900000E0FF1200B27FFE
:10007B00F47E01120094900000E004F0E0C39410B1
:09008B0040DEE4900000F080D298
:10009400EF1FAA0670011E4A6013E4FCFDC3ED9431
:0D00A4003AEC940750EA0DBD00010C80F00D
:0100B100222C
:100003007F2C7E0112009443BA8090FE02E044806C
:10001300F090FE02E030E0F990FE00E0E4F0A3E0AF
:10002300E4F053BA7F53FFEF7593FFF5947591FF97
:10003300F5927595FFF59675B3FFF5B475C9FFF5A0
:10004300CA75CBFFF5CC75E1FFF5E253B1FC53B2B2
:08005300FC43B1FC53B203228F
:1000CC00FC60DAF266B6BEE0FEF6EE3E9C7A9E8EE0
:0700E800E4F5917592FF227F
:1000B200EF9000CC93FFE4FEC290EF139291D290A6
:0900C200EFC313FF0EEEB408EFCA
:0100CB002212
:030000000200DC1F
:0C00DC00787FE4F6D8FD75810702005B18
:00000001FF
