:0515A700383536330069
:10127B0012112E1210CD12156E7BFF7A1579A7E481
:10128B00FD7F01120F4E7B09E4FD7F0312148F7B50
:10129B000AE4FD7F0412148F7B0BE4FD7F0512140F
:1012AB008F7B0CE4FD7F0612148F120E24120BEBB6
:0212BB0080F8B9
:1014B100EF1FAA0670011E4A6013E4FCFDC3ED9400
:0D14C1003AEC940750EA0DBD00010C80F0DC
:0114CE0022FB
:10154600EF1FAA0670011E4A600A00007D031DED0A
:0415560060EE80FAC9
:01155A00226E
:10112E007F2C7E011214B143BA8090FE02E04480FF
:10113E00F090FE02E030E0F990FE00E0E4F0A3E073
:10114E00E4F053BA7F53FFEF7593FFF5947591FF5B
:10115E00F5927595FFF59675B3FFF5B475C9FFF564
:10116E00CA75CBFFF5CC75E1FFF5E253B1FC53B276
:08117E00FC43B1FC53B2032253
:1000030062D009000020202020FF000000FF4020D4
:100013003018100010301808047F0000003F4040E3
:1000230040407800000404E424242526242424E406
:1000330006040000002010190D41817F0101050D08
:1000430038100000020202F212121E16121212F2ED
:1000530002020200000000FF41414141414141FFD2
:100063000000000010129272FE51910022CC000099
:10007300FF00000004020100FF0004040402020266
:10008300FF010100846424242F2424A424242F2486
:1000930024A4640040422222120A06FF060A122206
:1000A300224240004020D04C434448D8301000FC4A
:1000B3000000FF0000003F40404244437800000737
:1000C30020403F0000804020180680000718204091
:1000D30080000000010020702826212020243860A1
:1000E3000001010000101292929292929212120257
:1000F300FE0000000000003F101010103F00408081
:100103007F0000000000000000000000000000006D
:1001130000000000000000000000000000000000DC
:100123000000000000FC848484FC001010101010F8
:10013300FF101000003F1010103F00000106408028
:100143007F00000020102CE7242400F01010FF1083
:1001530010F000000101017F211100070202FF02DC
:1001630002070000100C048414640506F40404045C
:1001730004140C00048484444724140C070C142432
:100183004484040002FA8282FE804020504C434C97
:100193005020400008184884443F404458414E6072
:1001A300584740000000000000000000000000006D
:1001B300000000000000000000000000000000003C
:1001C300000000000000000000000000000000002C
:1001D300000000000000000000000000000000001C
:1001E300000000000000F0E0A0A050F0D0D01010FC
:1001F30020E0200000001F1F12161D1B1D1D1212E0
:10020300121F000000002020E020E02020404020BA
:10021300A0B000000011190D07011F1911121219C6
:10022300090C06000000206040C0A0E0B0B0E0A0D0
:10023300A00000000101190A06013F0A0B05070B84
:100243001818100000000000F0F0D0D0D0D0F0005B
:100253000000000000003E1A1B1A3E003E3E2B2AFF
:100263002A3E0200000000E0F0606060606060F021
:10027300600000000030101615111F11111F111519
:100283003630100000808080B0909090909090A0C5
:10029300808080800001080C0622203F1F00060496
:1002A3000911010000000000000000000000000030
:1002B300000000000000000000000000000000003B
:1002C300000000000000000000000000000000002B
:1002D30000000000610008000000000000000000B2
:1002E300000000000000000000000000000000000B
:1002F3000000000000000000F80800F80008F80003
:10030300033C0700073C0300F80800F80008F80066
:10031300033C0700073C0300F80800F80008F80056
:10032300033C0700073C030000000000000000003E
:10033300003030000000000008F8888888887000CA
:10034300203F2000030C30200070880808887000CC
:10035300001C222121221C00C03008080808380094
:1003630007182020201008000000000000000000F3
:100373000030300000000000C030080808083800D2
:100383000718202020100800E01008080810E000DB
:100393000F10202020100F0008F8F800F8F80800CC
:1003A300203F003F003F200000000000000000004D
:1003B300000000000000000000000000000000003A
:1003C300000000000000000000000000000000002A
:1003D30000000000000000006800000000000000B2
:1003E30000000000000000000000000000FE020208
:1003F30002020202003F20202020202000000000F3
:1004030000000000000000000000000000FE0202E7
:1004130002020202003F20202020202000FE0202D0
:1004230002020202003F20202020202000FE0202C0
:1004330002020202003F20202020202000FE0202B0
:1004430002020202003F20202020202000FE0202A0
:1004530002020202003F20202020202000FE020290
:1004630002020202003F2020202020200000000082
:100473000000000000000000000000000000000079
:100483000000000000000000000000000000000069
:1004930000000000000000000000000000FE020257
:1004A30002020202003F20202020202000000080C2
:1004B300C0C08000000E07033F3F030700FE020297
:1004C30002020202003F20202020202000FE020220
:1004D30002020202003F20202020202000FE020210
:1004E30002020202003F20202020202000FE020200
:1004F30002020202003F20202020202000FE0202F0
:1005030002020202003F20202020202000FE0202DF
:1005130002020202003F20202020202000FE0202CF
:1005230002020202003F20202020202000FE0202BF
:1005330002020202003F20202020202000FE0202AF
:1005430002020202003F20202020202000FE02029F
:1005530002020202003F20202020202000FE02028F
:1005630002020202003F20202020202000FE02027F
:1005730002020202003F20202020202000FE02026F
:1005830002020202003F20202020202000FE02025F
:1005930002020202003F2020202020200000000051
:1005A3000000000000000000000000000000000048
:1005B3000000000000000000000000000000000038
:1005C3000000000000000000000000000000000028
:1005D3000000000000000000000000000000000018
:1005E300000000000000000000000000000000F810
:1005F30000000000000000330000000000100C02A7
:10060300100C020000000000000000000040C07851
:1006130040C0780000043F04043F04000070888851
:10062300FC08300000182020FF211E00F008F08095
:100633006018000000310C031E211E0000F0088822
:10064300700000001E21232C1927211000120E0018
:10065300000000000000000000000000000000E0B7
:1006630018040200000000071820400000020418CC
:10067300E00000000040201807000000404080F028
:10068300804040000202010F01020200000000004E
:10069300E0000000000101010F0101010000000062
:1006A3000000000000907000000000000000000047
:1006B3000000000000010101010101000000000031
:1006C30000000000003030000000000000000000C7
:1006D300C0380400006018070000000000E01008A4
:1006E3000810E000000F102020100F000000101071
:1006F300F8000000000020203F20200000700808C0
:100703000808F000003028242221300000300808B7
:10071300088870000018202121221C00000080405E
:1007230030F8000000060524243F242400F88888BC
:10073300880808000019202020110E0000E010880E
:1007430088900000000F112020201F0000180808C7
:10075300886818000000003E01000000007088084F
:1007630008887000001C222121221C0000F00808C8
:100773000810E0000001122222110F00000000C047
:10078300C0000000000000303000000000000080C6
:1007930000000000000000E00000000000008040B6
:1007A300201008000001020408102000004040400F
:1007B3004040400000020202020202000008102032
:1007C3004080000000201008040201000070480867
:1007D300088870000000003037000000C030C828CF
:1007E300E810E000071827282F2817000000C0385A
:1007F300E0000000203C23020227382008F8888804
:1008030088700000203F202020110E00C03008080F
:1008130008083800071820202010080008F80808E6
:100823000810E000203F202020100F0008F88888DF
:10083300E8081000203F20202320180008F88888AB
:10084300E8081000203F200003000000C030080823
:100853000838000007182020221E020008F80800AC
:100863000008F808203F210101213F20000808F873
:10087300080800000020203F202000000000080896
:10088300F8080800C08080807F00000008F888C056
:1008930028180800203F20012638200008F8080007
:1008A30000000000203F20202020300008F8F8003E
:1008B300F8F80800203F013E013F200008F830C04F
:1008C3000008F808203F200007183F00E010080840
:1008D3000810E0000F10202020100F0008F808086F
:1008E3000808F000203F210101010000E010080882
:1008F3000810E0000F10282830504F0008F88888AF
:1009030088887000203F2000030C30200070880886
:10091300080838000038202121221C00180808F894
:10092300080818000000203F2000000008F8080015
:100933000008F808001F202020201F0008788800E6
:1009430000C83808000007380E01000008F800F856
:1009530000F8080000033E013E0300000818688009
:100963008068180820302C03032C30200838C80076
:10097300C83808000000203F2000000010080808C5
:10098300C83808002038262120201800000000FE67
:10099300020202000000007F40404000000438C013
:1009A30000000000000000010638C000000202023F
:1009B300FE000000004040407F00000000000402F1
:1009C300020400000000000000000000000000001E
:1009D300000000008080808080808080000202040C
:1009E3000000000000000000000000000000808004
:1009F3008000000000192424123F200010F0008022
:100A030080000000003F112020110E000000008034
:100A130080800000000E1120202011000000808043
:100A23008090F000001F202020103F2000008080D5
:100A330080800000001F242424241700008080E00D
:100A4300909020000020203F2020000000008080A4
:100A530080808000006B94949493600010F0008079
:100A630080800000203F210000203F2000809898D4
:100A7300000000000020203F202000000000008034
:100A83009898000000C08080807F000010F0000074
:100A930080808000203F240629302000001010F8B9
:100AA300000000000020203F202000008080808084
:100AB30080808000203F20003F20003F8080008016
:100AC30080800000203F210000203F200000808024
:100AD30080800000001F202020201F0080800080D5
:100AE3008000000080FF912020110E000000008094
:100AF30080008000000E11202091FF808080800004
:100B03008080800020203F212000010000008080A1
:100B1300808080000033242424241900008080E096
:100B2300808000000000001F202010008080000053
:100B330000808000001F202020103F208080800044
:100B43008080800000030C300C0300008080008054
:100B530080008080010E300C073806010080808001
:100B6300008080000020310E2E3120008080800024
:100B730000808080008186781806010000808080D4
:100B8300808080000021302C2221300000000000F2
:100B930000FC020200000000013E40400000000093
:100BA300FF00000000000000FF0000000202FC0044
:100BB3000000000040403E0100000000000201026E
:100BC300020402000000000000000000000000001A
:0C0BD30000000000000000000000000016
:1012BD00900BF6EFF07F0A7E0012154653A0FB7FD0
:1012CD000A7E0012154653A0F7758000900BF6E0CC
:1012DD0042807F647E0012154643A0107F0A7E0077
:1012ED0012154653A0EF7F0A7E0012154675800039
:0112FD0022CE
:10133E00900C12EFF0A3EDF0A3EBF07F0A7E0012FB
:10134E001546900C12E0FF1215847F0A7E001215CE
:10135E0046900C13E0FF12158B7F0A7E0012154685
:0F136E00900C14E0FF12157B7F0A7E00021546DB
:07158400EF44B8FF0212BDA5
:07158B00EF44C0FF0212BD96
:09157B00EF543F4440FF0212BD91
:07159200EF443EFF0212BD11
:04122C00F583E0FF67
:10123000900BF6EFF07F0A7E0012154643A0047F64
:101240000A7E0012154653A0F77F0A7E001215464B
:1012500053A0EF758000900BF6E042807F647E0023
:1012600012154643A0107F0A7E0012154653A0EFC8
:0B1270007F0A7E0012154675800022E8
:1013F200EF14600C1460182402702853A0FE8003BE
:1014020043A0017F0A7E0012154653A0FD800D53B2
:10141200A0FE7F0A7E0012154643A0027F0A7E00CC
:041422001215462237
:10106600900BD0EFF0E4F0900BD0E0FFC394085063
:10107600557B08E4FD12148F7D011214887D02123F
:101086001488900BD0E0FF7B087D0312148F900B21
:10109600D0E0FF7B087D0412148F900BD0E0FF7B1D
:1010A600087D0512148F900BD0E0FF7B087D061299
:1010B600148F900BD0E0FF7B087D0712148F900BE6
:0710C600D0E004F080A1223C
:10137D00E4900C17F0900C17E0FFC39440502F53DE
:10138D00A0FEEF24C0FF1212BD43A00153A0FD909B
:10139D000C17E0FFC374FE9FFF1212BD53A0FD7F1B
:0E13AD000A7E00121546900C17E004F080C76F
:0113BB00220F
:1010CD0012155B7F0A7E00121546E4FF1213F2E43F
:1010DD00FF1215927F0A7E00121546E4FF1213F2DD
:1010ED007F011215927F0A7E00121546E4FF12133E
:1010FD00F2E4FF1210667F0A7E00121546E4FF121D
:10110D00158B7F0A7E001215467F3F1215927F0ABE
:10111D007E00121546E4FF1210667F0A7E0002154E
:01112D00467B
:07148800900BD0E0FF7B0890
:04148F00AE07AC03F5
:10149300E4FFEED3940350030F80027F02ED25E0B7
:0E14A300FDEEC454F0FB900BD4ECF0020CB93B
:100F4E00900BE9EFF0A3EDF0A3EBF0A3EAF0A3E929
:010F5E00F0A2
:100F5F00E4A3F0A3F0900BEBE0FBA3E0FAA3E0F91E
:100F6F001214596065900BE9E0D3940F4009E4F037
:100F7F00900BEFE02402F0900BE9E0FEC394089091
:100F8F000BEE50057401F080037402F0900BEEE04D
:100F9F00FF900BEAE025E0FD900BEFE02DFDEE75E5
:100FAF00F008A4FBC003900BEBE0FBA3E475F0018A
:100FBF00121472A9F0FA121459900BF3F0D0031215
:0A0FCF000D86900BE9E004F0808B22
:010FD90022F5
:0B0CB900900BD1EFF0A3EDF0A3EBF0E7
:100CC4007F3F121592900BD1E0FF1213F2900BD3D9
:100CD400E0543FF0900BD2E0FF121584900BD3E068
:100CE400FF12157BE4900BD5F0A3F0900BD5E0FE3A
:100CF400A3E0FFC39410EE64809480502D900BD435
:100D0400E075F020A42FF582E5F03EF583E582241A
:100D140000F582E583340912122C900BD6E004F01E
:100D240070C9900BD5E004F080C1900BD2E004FFB1
:100D3400121584900BD3E0FF12157BE4900BD5F0D1
:100D4400A3F0900BD5E0FEA3E0FFC39410EE648003
:100D54009480502D900BD4E075F020A42FF582E5FB
:100D6400F03EF583E5822410F582E58334091212FE
:100D74002C900BD6E004F070C9900BD5E004F08001
:010D8400C1AD
:010D8500224B
:080D8600900BF1EDF0A3EBF07E
:100D8E00A3E0900BF5F01213F2900BF2E0543FF04B
:100D9E00900BF1E0FF121584900BF2E0FF12157B21
:100DAE00E4900BF4F0900BF4E0FFC394085023A3EF
:100DBE00E075F010A42FF582E435F0F583E582247A
:100DCE0000F582E583340012122C900BF4E004F04F
:100DDE0080D3900BF1E004FF121584900BF2E0FF2C
:100DEE0012157BE4900BF4F0900BF4E0FFC3940823
:100DFE005023A3E075F010A42FF582E435F0F583AF
:100E0E00E5822408F582E583340012122C900BF44F
:050E1E00E004F080D3A8
:010E230022AC
:10155B007593007594005395E05396E075A0007554
:03156B00800022DB
:0D156E0053953F53963F43A04043A0802279
:0715990043958053967F2269
:0715A00053957F53967F2253
:1014CF001215A043A08043A0407F047E0012154652
:0E14DF0053A07F7F047E0012154653A0BF224B
:101529001215A053A0BF53A07F7F047E0012154659
:0D15390043A04043A0807F047E00021546C1
:1013BC00E4900BD3F043A0801215997F01FE121517
:1013CC004643A0407F017E0012154630A712900BB9
:1013DC00D3E004F0E0D394FA40F11215297F0122F6
:0513EC0053A0BF7F00CB
:0113F10022D9
:1014ED0053A0BF1215A053A07F7F027E0012154698
:0E14FD0043A0407F027E0012154653A0BF227E
:10150B0053A0BF1215A043A0807F027E0012154688
:0E151B0043A0407F027E0012154653A0BF225F
:05118600900BD3EFF017
:10118B001215A053A0BFE4A3F0900BD3E0FF548043
:10119B00C41313135401600543A080800353A07F35
:1011AB00EF25E0900BD3F07F027E0012154643A093
:1011BB00407F027E0012154653A0BF7F027E0012B5
:0E11CB001546900BD4E004F0E0C3940840BB3E
:0111D90022F3
:0511DA00900BD3EFF0C3
:1011DF00E4900BD5F0121599900BD4F053A0BF7F6C
:1011EF00027E0012154643A040900BD5E025E0F09B
:1011FF0030A703E004F07F017E00121546900BD458
:10120F00E004F0E0C3940840D3900BD3E0700512D4
:0C121F00150B80031214ED900BD5E0FFBE
:01122B0022A0
:0B0BDF00480BF714160607103900023F
:0315AC0002156EB7
:0812FE00900BD0EEF0A3EFF01D
:10130600E4A3F01214CF7FA21211861213BC900B25
:10131600D0A3E0FF1211861213BC1214CF7FA312C2
:1013260011861213BCE4FF1211DA900BD2EFF01201
:071336001529900BD2E0FF26
:01133D00228D
:10142600900C15EFF0A3EDF01214CF7FA2121186E7
:101436001213BC900C15E0FF1211861213BC900C0F
:1014460016E0FF1211861213BC1215297F0A7E00C0
:031456000214B1CC
:100EBF00E4FF74F72FF582E4340BF583E0FE75F051
:100ECF000A84FDEE75F00A84740A2FF582E4340C5F
:100EDF00F583E5F0F0EDC454F0FE740A2FF582E4CB
:100EEF00340CF583E02EF00FEFB408C67D20E4FF3D
:100EFF00121426900C0BE0FD7F08121426900C0C98
:100F0F00E0FD7F07121426900C0DE0FD7F051214F3
:100F1F0026900C0EE0FD7F04121426900C0FE0FDBE
:100F2F007F03121426900C10E0FD7F0212142690FE
:0F0F3F000C11E0FD7F06121426E4FDFF021426BC
:100E24007F087E001212FEEF900C0AF07F077E000E
:100E34001212FEEF541F900C0CF07F057E0012126C
:100E4400FEEF543F900C0DF07F047E001212FEEF73
:100E5400543F900C0EF07F037E001212FEEF547F7D
:100E6400900C0FF07F027E001212FEEF547F900C64
:100E740010F07F067E001212FEEF5407900C11F062
:100E8400E4FF740A2FF582E4340CF583E0FEC454C5
:100E94000FFDEE540FFE74F72FF582E4340BF58347
:100EA400EEF0ED75F00AA4FE74F72FF582E4340B2E
:0A0EB400F583E02EF00FEFB408C83C
:010EBE002211
:100BEB00900BF7E0FD75F00A842430900BD0F0EDFC
:100BFB0075F00A84E5F02430A3F0A3742FF0900B6A
:100C0B00F9E0FD75F00A842430900BD3F0ED75F00C
:100C1B000A84E5F02430A3F0A3742FF0900BFAE0D4
:100C2B00FD75F00A842430900BD6F0ED75F00A8434
:100C3B00E5F02430A3F0A37420F0A3F0A3F0A3F00D
:100C4B00A3F0A3F0A3F0A3F0900BFBE0FD75F00A6B
:100C5B00842430900BE0F0ED75F00A84E5F024303D
:100C6B00A3F0A3743AF0900BFCE0FD75F00A84241A
:100C7B0030900BE3F0ED75F00A84E5F02430A3F02F
:100C8B00A3743AF0900BFDE0FD75F00A84243090CC
:100C9B000BE6F0ED75F00A84E5F02430A3F0E4A345
:0E0CAB00F07B017A0B79D07D017F03020F4EA2
:03000000020FDA12
:0C0FDA00787FE4F6D8FD75810702102135
:10145900BB010689828A83E0225002E722BBFE0291
:09146900E32289828A83E49322C4
:10147200A3F8E0C5F025F0F0E5821582700215832D
:06148200E0C838F0E8228A
:100FE60002127BE493A3F8E493A34003F68001F294
:100FF60008DFF48029E493A3F85407240CC8C3330C
:10100600C4540F4420C8834004F456800146F6DFDA
:10101600E4800B0102040810204080900003E47E67
:10102600019360BCA3FF543F30E509541FFEE493CF
:10103600A360010ECF54C025E060A840B8E493A396
:10104600FAE493A3F8E493A3C8C582C8CAC583CAC1
:10105600F0A3C8C582C8CAC583CADFE9DEE780BE79
:010BEA00000A
:00000001FF
