:10000300404346494C4F5255585B5E606366686A8D
:100013006D6F7173757678797B7C7D7E7E7F7F7F54
:100023007F7F7F7F7E7E7D7C7B7978767573716F32
:100033006D6A686663605E5B5855524F4C49464330
:10004300403C393633302D2A2724211F1C1917151C
:1000530012100E0C0A090706040302010100000036
:100063000000000001010203040607090A0C0E1038
:10007300121517191C1F2124272A2D303336393C1A
:1000DB001200831201C8C2A3D2A2E4FF12011F7F38
:1000EB00011201BE900000E475F00112019CFEE5C7
:1000FB00F064804E7006900000F0A3F0900000E0DA
:10010B00FEA3E02403F58274003EF583E493FF1213
:04011B00015B80C242
:10017E00EF1FAA0670011E4A6013E4FCFDC3ED9446
:0D018E003AEC940750EA0DBD00010C80F022
:01019B002241
:100083007F2C7E0112017E43BA8090FE02E0448001
:10009300F090FE02E030E0F990FE00E0E4F0A3E02F
:1000A300E4F053BA7F53FFEF7593FFF5947591FF17
:1000B300F5927595FFF59675B3FFF5B475C9FFF520
:1000C300CA75CBFFF5CC75E1FFF5E253B1FC53B232
:0800D300FC43B1FC53B203220F
:0701C800E4F5957596FF2296
:10015B00D2A2E4FED2A0EF5480B48004D2A18002DC
:10016B00C2A1C2A0EF25E0FDFF0EEEB408E6C2A2CD
:02017B00D2A20E
:01017D00225F
:10011F00EF14601814601B1460252403702DE4FF86
:10012F00D2A0C2A1C2A00FEFB402F522D2A0C2A1E9
:10013F008011D2A0D2A1C2A0D2A0C2A1C2A022D2AD
:0B014F00A0D2A1C2A0D2A0D2A1C2A0E9
:01015A002282
:0A01BE00D2A0EF24FF92A1C2A022FC
:030000000201B248
:0C01B200787FE4F6D8FD7581070200DBC1
:10019C00C5F0F8A3E028F0C5F0F8E58215827002EE
:0601AC001583E038F0228B
:00000001FF
