:101887002044533138423230204F4B2020004E75D0
:101897006D203A20003100320074656D70313A00D6
:1018A70074656D70323A00202020202020004453B8
:0C18B7003138423230204552524F52006E
:10000300460B482020202020004A0B3E0000000021
:06001300000000000000E7
:10106200900A70120DF300000000E4900A74F0126E
:1010720015EA121589121A16120E24900B3DE07011
:10108200030211B07BFF7A187987E4FD7F02121404
:101092000A7BFF7A1879957D01E4FF12140A900BFE
:1010A2003DE0B401087BFF7A18799C800D900B3DDE
:1010B200E0B4020D7BFF7A18799E7D017F0612143F
:1010C2000AE4900A74F07BFF7A1879A07D02E4FFAB
:1010D20012140A7BFF7A1879A77D03E4FF12140A1F
:1010E2007B097D027F061219977B097D037F061219
:1010F2001997900A74E0FF1212A0900A70120DE77D
:10110200E4FFFE7DC87C42900A70E0F8A3E0F9A3F8
:10111200E0FAA3E0FB120A9A120BDEAB07AA067CE6
:10112200037DE8120D6E7C007D0A120D6EED2430F7
:10113200900B48F07C007D64AF03AE02120D6E7C12
:10114200007D0A120D6EED2430A3F0A3742EF07C04
:10115200007D0AAF03AE02120D6E7C007D0A120DF5
:101162006EED2430A3F0AE02AF037C007D0A120DB7
:101172006EED2430A3F0900A74E02402FD7B017A24
:101182000B79487F0612140A900B3DE0C39402507B
:101192000C7BFF7A1879AE7D037F068027900A7454
:1011A200E004F0E0C3940250030210C88019E4FF87
:1011B2001215227FF47E011219B97BFF7A1879B5D4
:1011C200E4FD7F0212140A7FF47E011219B90210A3
:0111D2007AA2
:1019B900EF1FAA0670011E4A6013E4FCFDC3ED94F3
:0D19C9003AEC940750EA0DBD00010C80F0CF
:0119D60022EE
:1019EE00EF1FAA0670011E4A600A00007D031DED5E
:0419FE0060EE80FA1D
:011A020022C1
:1015EA007F2C7E011219B943BA8090FE02E0448032
:1015FA00F090FE02E030E0F990FE00E0E4F0A3E0B3
:10160A00E4F053BA7F53FFEF7593FFF5947591FF9A
:10161A00F5927595FFF59675B3FFF5B475C9FFF5A3
:10162A00CA75CBFFF5CC75E1FFF5E253B1FC53B2B5
:08163A00FC43B1FC53B2032292
:10001900617009000020202020FF000000FF40201F
:100029003018100010301808047F0000003F4040CD
:1000390040407800000404E424242526242424E4F0
:1000490006040000002010190D41817F0101050DF2
:1000590038100000020202F212121E16121212F2D7
:1000690002020200000000FF41414141414141FFBC
:100079000000000010129272FE51910022CC000083
:10008900FF00000004020100FF0004040402020250
:10009900FF010100846424242F2424A424242F2470
:1000A90024A4640040422222120A06FF060A1222F0
:1000B900224240004020D04C434448D8301000FC34
:1000C9000000FF0000003F40404244437800000721
:1000D90020403F000080402018068000071820407B
:1000E900800000000100207028262120202438608B
:1000F9000001010000101292929292929212120241
:10010900FE0000000000003F101010103F0040806A
:100119007F00000000000000000000000000000057
:1001290000000000000000000000000000000000C6
:1001390000000000060909E6F80C040202020202A6
:10014900041E0000000000071F30204040404040CE
:100159002010000000000000000000000000000066
:100169000000000000000000000000000000000086
:100179000000000000000000000000000000000076
:1001890000000000610008000000000000000000FD
:100199000000000000000000000000000000000056
:1001A9000000000000000000F80800F80008F8004E
:1001B900033C0700073C0300F80800F80008F800B2
:1001C900033C0700073C0300F80800F80008F800A2
:1001D900033C0700073C030000000000000000008A
:1001E900003030000000000008F888888888700016
:1001F900203F2000030C3020007088080888700018
:10020900001C222121221C00C030080808083800DF
:10021900071820202010080000000000000000003E
:100229000030300000000000C0300808080838001D
:100239000718202020100800E01008080810E00026
:100249000F10202020100F0008F8F800F8F8080017
:10025900203F003F003F2000000000000000000098
:100269000000000000000000000000000000000085
:100279000000000000000000000000000000000075
:1002890000000000000000006800000000000000FD
:1002990000000000000000000000000000FE020253
:1002A90002020202003F202020202020000000003E
:1002B90000000000000000000000000000FE020233
:1002C90002020202003F20202020202000FE02021C
:1002D90002020202003F20202020202000FE02020C
:1002E90002020202003F20202020202000FE0202FC
:1002F90002020202003F20202020202000FE0202EC
:1003090002020202003F20202020202000FE0202DB
:1003190002020202003F20202020202000000000CD
:1003290000000000000000000000000000000000C4
:1003390000000000000000000000000000000000B4
:1003490000000000000000000000000000FE0202A2
:1003590002020202003F202020202020000000800D
:10036900C0C08000000E07033F3F030700FE0202E2
:1003790002020202003F20202020202000FE02026B
:1003890002020202003F20202020202000FE02025B
:1003990002020202003F20202020202000FE02024B
:1003A90002020202003F20202020202000FE02023B
:1003B90002020202003F20202020202000FE02022B
:1003C90002020202003F20202020202000FE02021B
:1003D90002020202003F20202020202000FE02020B
:1003E90002020202003F20202020202000FE0202FB
:1003F90002020202003F20202020202000FE0202EB
:1004090002020202003F20202020202000FE0202DA
:1004190002020202003F20202020202000FE0202CA
:1004290002020202003F20202020202000FE0202BA
:1004390002020202003F20202020202000FE0202AA
:1004490002020202003F202020202020000000009C
:100459000000000000000000000000000000000093
:100469000000000000000000000000000000000083
:100479000000000000000000000000000000000073
:100489000000000000000000000000000000000063
:10049900000000000000000000000000000000F85B
:1004A90000000000000000330000000000100C02F2
:1004B900100C020000000000000000000040C0789D
:1004C90040C0780000043F04043F0400007088889D
:1004D900FC08300000182020FF211E00F008F080E1
:1004E9006018000000310C031E211E0000F008886E
:1004F900700000001E21232C1927211000120E0064
:10050900000000000000000000000000000000E002
:100519001804020000000007182040000002041817
:10052900E00000000040201807000000404080F073
:10053900804040000202010F010202000000000099
:10054900E0000000000101010F01010100000000AD
:100559000000000000907000000000000000000092
:10056900000000000001010101010100000000007C
:100579000000000000303000000000000000000012
:10058900C0380400006018070000000000E01008EF
:100599000810E000000F102020100F0000001010BC
:1005A900F8000000000020203F202000007008080B
:1005B9000808F00000302824222130000030080803
:1005C900088870000018202121221C0000008040AA
:1005D90030F8000000060524243F242400F8888808
:1005E900880808000019202020110E0000E010885A
:1005F90088900000000F112020201F000018080813
:10060900886818000000003E01000000007088089A
:1006190008887000001C222121221C0000F0080813
:100629000810E0000001122222110F00000000C092
:10063900C000000000000030300000000000008011
:1006490000000000000000E0000000000000804001
:10065900201008000001020408102000004040405A
:10066900404040000002020202020200000810207D
:1006790040800000002010080402010000704808B2
:10068900088870000000003037000000C030C8281A
:10069900E810E000071827282F2817000000C038A5
:1006A900E0000000203C23020227382008F888884F
:1006B90088700000203F202020110E00C03008085B
:1006C90008083800071820202010080008F8080832
:1006D9000810E000203F202020100F0008F888882B
:1006E900E8081000203F20202320180008F88888F7
:1006F900E8081000203F200003000000C03008086F
:100709000838000007182020221E020008F80800F7
:100719000008F808203F210101213F20000808F8BE
:10072900080800000020203F2020000000000808E1
:10073900F8080800C08080807F00000008F888C0A1
:1007490028180800203F20012638200008F8080052
:1007590000000000203F20202020300008F8F80089
:10076900F8F80800203F013E013F200008F830C09A
:100779000008F808203F200007183F00E01008088B
:100789000810E0000F10202020100F0008F80808BA
:100799000808F000203F210101010000E0100808CD
:1007A9000810E0000F10282830504F0008F88888FA
:1007B90088887000203F2000030C302000708808D2
:1007C900080838000038202121221C00180808F8E0
:1007D900080818000000203F2000000008F8080061
:1007E9000008F808001F202020201F000878880032
:1007F90000C83808000007380E01000008F800F8A2
:1008090000F8080000033E013E0300000818688054
:100819008068180820302C03032C30200838C800C1
:10082900C83808000000203F200000001008080810
:10083900C83808002038262120201800000000FEB2
:10084900020202000000007F40404000000438C05E
:1008590000000000000000010638C000000202028A
:10086900FE000000004040407F000000000004023C
:100879000204000000000000000000000000000069
:100889000000000080808080808080800002020457
:10089900000000000000000000000000000080804F
:1008A9008000000000192424123F200010F000806D
:1008B90080000000003F112020110E000000008080
:1008C90080800000000E112020201100000080808F
:1008D9008090F000001F202020103F200000808021
:1008E90080800000001F242424241700008080E059
:1008F900909020000020203F2020000000008080F0
:1009090080808000006B94949493600010F00080C4
:1009190080800000203F210000203F20008098981F
:10092900000000000020203F20200000000000807F
:100939009898000000C08080807F000010F00000BF
:1009490080808000203F240629302000001010F804
:10095900000000000020203F2020000080808080CF
:1009690080808000203F20003F20003F8080008061
:1009790080800000203F210000203F20000080806F
:1009890080800000001F202020201F008080008020
:100999008000000080FF912020110E0000000080DF
:1009A90080008000000E11202091FF80808080004F
:1009B9008080800020203F212000010000008080ED
:1009C900808080000033242424241900008080E0E2
:1009D900808000000000001F20201000808000009F
:1009E90000808000001F202020103F208080800090
:1009F9008080800000030C300C03000080800080A0
:100A090080008080010E300C07380601008080804C
:100A1900008080000020310E2E312000808080006F
:100A2900008080800081867818060100008080801F
:100A3900808080000021302C22213000000000003D
:100A490000FC020200000000013E404000000000DE
:100A5900FF00000000000000FF0000000202FC008F
:100A69000000000040403E010000000000020102B9
:100A79000204020000000000000000000000000065
:0C0A890000000000000000000000000061
:10178800900A82EFF07F0A7E001219EE53A0FB7FC9
:101798000A7E001219EE53A0F7758000900A82E0C5
:1017A80042807F647E001219EE43A0107F0A7E00FB
:1017B8001219EE53A0EF7F0A7E001219EE75800011
:0117C80022FE
:10180900900B4EEFF0A3EDF0A3EBF07F0A7E0012F0
:1018190019EE900B4EE0FF121A297F0A7E00121969
:10182900EE900B4FE0FF121A307F0A7E001219EE7C
:0F183900900B50E0FF121A207F0A7E000219EE7A
:071A2900EF44B8FF0217882B
:071A3000EF44C0FF0217881C
:091A2000EF543F4440FF02178817
:071A3700EF443EFF02178897
:0416EA00F583E0FFA5
:1016EE00900A82EFF07F0A7E001219EE43A0047F6B
:1016FE000A7E001219EE53A0F77F0A7E001219EE31
:10170E0053A0EF758000900A82E042807F647E00D5
:10171E001219EE43A0107F0A7E001219EE53A0EFAD
:0B172E007F0A7E001219EE7580002279
:10193000EF14600C1460182402702853A0FE80037A
:1019400043A0017F0A7E001219EE53A0FD800D53C3
:10195000A0FE7F0A7E001219EE43A0027F0A7E00DD
:041960001219EE2248
:10152200900A75EFF0E4F0900A75E0FFC39408505A
:10153200557B08E4FD1219977D011219907D021264
:101542001990900A75E0FF7B087D03121997900AA3
:1015520075E0FF7B087D04121997900A75E0FF7B06
:10156200087D05121997900A75E0FF7B087D061227
:101572001997900A75E0FF7B087D07121997900A68
:0715820075E004F080A122D6
:10184800E4900B51F0900B51E0FFC39440502F539C
:10185800A0FEEF24C0FF12178843A00153A0FD90FB
:101868000B51E0FFC374FE9FFF12178853A0FD7F42
:0E1878000A7E001219EE900B51E004F080C7BA
:01188600223F
:10158900121A037F0A7E001219EEE4FF121930E4E1
:10159900FF121A377F0A7E001219EEE4FF12193082
:1015A9007F01121A377F0A7E001219EEE4FF121921
:1015B90030E4FF1215227F0A7E001219EEE4FF12B1
:1015C9001A307F0A7E001219EE7F3F121A377F0AFE
:1015D9007E001219EEE4FF1215227F0A7E0002191D
:0115E900EE13
:07199000900A75E0FF7B08DF
:04199700AE07AC03E8
:10199B00E4FFEED3940350030F80027F02ED25E0AA
:0E19AB00FDEEC454F0FB900A79ECF00211D36B
:10140A00900A75EFF0A3EDF0A3EBF0A3EAF0A3E9DD
:01141A00F0E1
:10141B00E4A3F0A3F0900A77E0FBA3E0FAA3E0F9D2
:10142B00120D556065900A75E0D3940F4009E4F0F6
:10143B00900A7BE02402F0900A75E0FEC3940890BA
:10144B000A7A50057401F080037402F0900A7AE076
:10145B00FF900A76E025E0FD900A7BE02DFDEE750E
:10146B00F008A4FBC003900A77E0FBA3E475F0013E
:10147B00120DC3A9F0FA120D55900A7FF0D003128A
:0A148B00136C900A75E004F0808BEA
:011495002234
:0B11D300900A76EFF0A3EDF0A3EBF024
:1011DE007F3F121A37900A76E0FF121930900A7884
:1011EE00E0543FF0900A77E0FF121A29900A78E057
:1011FE00FF121A20E4900A7AF0A3F0900A7AE0FE29
:10120E00A3E0FFC39410EE64809480502D900A7971
:10121E00E075F020A42FF582E5F03EF583E58224FB
:10122E0000F582E58334091216EA900A7BE004F099
:10123E0070C9900A7AE004F080C1900A77E004FF4A
:10124E00121A29900A78E0FF121A20E4900A7AF016
:10125E00A3F0900A7AE0FEA3E0FFC39410EE648040
:10126E009480502D900A79E075F020A42FF582E538
:10127E00F03EF583E5822410F582E58334091216DB
:10128E00EA900A7BE004F070C9900A7AE004F080DC
:01129E00C18E
:01129F00222C
:08136C00900A7DEDF0A3EBF007
:10137400A3E0900A81F0121930900A7EE0543FF005
:10138400900A7DE0FF121A29900A7EE0FF121A20CB
:10139400E4900A80F0900A80E0FFC394085023A3ED
:1013A400E075F010A42FF582E435F0F583E582248E
:1013B40000F582E58334001216EA900A80E004F016
:1013C40080D3900A7DE004FF121A29900A7EE0FF80
:1013D400121A20E4900A80F0900A80E0FFC3940877
:1013E4005023A3E075F010A42FF582E435F0F583C3
:1013F400E5822408F582E58334001216EA900A8017
:05140400E004F080D3BC
:0114090022C0
:101A03007593007594005395E05396E075A00075A7
:031A13008000222E
:1017C9000000000000000000000000000000000010
:1017D9000000000000000000000000000000000000
:1017E90000000000000000000000000000000000F0
:1017F90000000000000000000000000000000000E0
:040A9500410B3D00D4
:071A3E00121A4C43A08022A4
:071A450043958053967F22B8
:071A4C0053957F53967F22A2
:1019D700121A4C53A07F7FE07E011219EE43A080BC
:0719E7007F0F7E000219EEE4
:10164200E4900A7DF0121A4530A715900A7DE0C396
:101652009464500CE004F07F017E001219EE80E8E1
:10166200900A7DE0C3946440037F0122E4900A7DE6
:10167200F020A715900A7DE0C394F0500CE004F02E
:101682007F017E001219EE80E8900A7DE0C394F09B
:0716920040037F01227F00ED
:01169900222E
:1018C300121A4C53A07F7F027E001219EE43A080B0
:1018D3007F0C7E001219EE121A4530A708900A7F7A
:1018E3007401F08005E4900A7FF07F327E001219C4
:0618F300EE900A7FE0FF09
:0118F90022CC
:10169A00E4900AFCF0900AFB7402F0900AFCE0FF66
:1016AA0025E0F0121A4C53A07F7F027E001219EE39
:1016BA0043A080121A457F0C7E001219EE30A7074C
:1016CA00900AFCE04401F07F327E001219EE900A83
:0F16DA00FBE014F0E0D3940050C1900AFCE0FF55
:0116E90022DE
:1018FA00E4900A7EF0900A7DF01218C3AC07900AB1
:10190A007DE0FEEFA806088002C333D8FCFE900AE9
:10191A007EE04EF0900A7DE004F0E0C3940840D9DE
:05192A00900A7EE0FFC1
:01192F002295
:10196400121A4CEF601153A07F7F027E001219EE11
:1019740043A0807F3C800F53A07F7F3C7E001219E0
:0C198400EE43A0807F027E001219EE22CC
:05173900900AFBEFF037
:10173E00121A4CA37401F0900AFBE0FF5401FEEF65
:10174E00C313F0AF06EF601153A07F7F0A7E001225
:10175E0019EE43A0807F32800F53A07F7F3C7E0026
:10176E001219EE43A0807F027E001219EE900AFC41
:09177E00E004F0E0D3940840BE41
:01178700223F
:0A1A1600121A3E1219D712164222CE
:0512A000900A75EFF05B
:1012A5001219D71216427FCC1217397F44121739FB
:1012B5001219D71216427F55121739E4900A76F0A3
:1012C500900A76E0FFC394085028900A75E075F0FF
:1012D50008A424FDF582E4340AF583E5822FF5821E
:1012E500E43583F583E0FF121739900A76E004F0C0
:1012F50080CE7FBE1217391218FA900A77EFF012D6
:1013050018FA900A78EFF054FC602DE0FE900A7709
:10131500E0FDEDF4FFEEF4FEEF2401FDE43EFC12EA
:101325000BA5900A79120DE7900A79E0FCA3E0FD80
:10133500A3E0FEA3E0FF8010900A78E0FE900A7714
:10134500E0FDEEFCE4120BA5E4FBFA7980783D1292
:101355000A9A900A79120DE7900A79E0FCA3E0FD5C
:06136500A3E0FEA3E0FF7F
:01136B00225F
:100E240078757C0A7D017BFF7A1779C97E007F4043
:100E3400120D2FE4900AF9F0A3F0900AF5F01219BC
:100E4400D77FE07E011219EE7FF0121739E4900A81
:100E5400F6F012169A900AF8EFF05403FFF0BF016F
:100E640003020EE8900AF8E0B40203020F35900A78
:100E7400F6E02475F582E4340AF583E07016900AEE
:100E8400F6E0FF2475F582E4340AF5837401F07406
:100E9400B52F8056900AF6E0FF2475F582E4340AF3
:100EA400F583E064016003020F35900AF9F0EF0462
:100EB400900AF7F0900AF7E0FFC39440501F900A9D
:100EC400F9E0FE74752FF582E4340AF583E0FFEE51
:100ED4004F900AF9F0900AF7E004F080D7900AF9ED
:100EE400E030E010900AF6E024B5F582E4340AF527
:100EF40083E4804C900AF6E024B5F582E4340AF5E4
:100F0400837401F0FF121964900AF6E0FF2475F56A
:100F140082E4340AF5837402F0EF04FFEFC39440D3
:100F2400502374752FF582E4340AF583E4F00F80BE
:100F3400EB900AF6E024B5F582E4340AF5837401F3
:100F4400F0FF121964900AF6E0643F703B900AFACD
:100F5400F0900AF7F0900AF7E0FFC39440501F9016
:100F64000AFAE0FE74752FF582E4340AF583E0FF93
:100F7400EE4F900AFAF0900AF7E004F080D7900A56
:100F8400FAE020E0035401F0900AF6E004F0E0C334
:100F940094405003020E56E4900AF6F0900AF6E0EC
:100FA400C394404003021042E4FF900AF6E0FE2F8F
:100FB40024B5F582E4340AF583E030E045EE1313FA
:100FC40013541FFE900AF5E0FD75F008A424FDF506
:100FD40082E4340AF583E5822EF582E43583F583D1
:100FE400E0C313F0ED75F008A424FDF582E4340A9F
:100FF400F583E5822EF582E43583F583E04480F0C1
:101004008029900AF6E0131313541FFE900AF5E0AA
:1010140075F008A424FDF582E4340AF583E5822EF4
:10102400F582E43583F583E0C313F00FEF640860C1
:1010340003020FAE900AF6E02408F0020FA0900A13
:10104400FAE0700A900AF5E004900B3DF022900A51
:0D105400F5E004F0E0C394105003020E42DA
:01106100226C
:100A9A00EC4D6011E8497017ED33EC3304600DE456
:100AAA00FCFFFEFD22E933E8330470F8020C4A1217
:100ABA000C1558046009E4CC248150062850090218
:100ACA000C54284003020C51C0E0EB4A7044B98030
:100ADA0006D0E0FB020C40EF4E701CBD8008EBFF15
:100AEA00EAFEE9FD80EBE98DF0A4FEE5F0020B8356
:100AFA00E9CDF9EAFEEBFFEF89F0A4FCE5F0CE8937
:100B0A00F0A42EFFE435F0CD89F0A42DFEE435F0F3
:100B1A008067EF4E7005BD80D780C3EF8BF0A4AC21
:100B2A00F0EE8BF0A42CFCE435F0F8EF8AF0A42C5C
:100B3A00E5F038FCE433CB8DF0A42CFCE5F03BF86F
:100B4A00EE8AF0A42CFCE5F038F8E433CF89F0A45F
:100B5A002CFCE5F038CF3400CE89F0A42FFFE5F065
:100B6A003EFEE433C98DF0A42EFEE5F039CD8AF0BD
:100B7A00A42FFFE5F03EFEE43DFD33D0E0FB500735
:100B8A000BBB000F020C54EC2CFCEF33FFEE33FED0
:060B9A00ED33FD020C2CFE
:100BA00075F020800E75F010800575F0087D007ED0
:100BB000007F003392D530D503120DD9EC334010AD
:100BC000EF33FFEE33FEED33FDEC33FCD5F0ED22D9
:0E0BD000E5F0247EA2D513CC92E7CDCEFF2215
:100BDE00EDD2E7CD33EC3392D524814006E4FFFE0F
:100BEE00FDFC22FCE4CFCECDCC24E0501174FF806E
:100BFE00EDC3CC13CCCD13CDCE13CECF13CF04700B
:070C0E00F030D5DE020DD924
:100C1500E9D2E7C933E833F892D5EDD2E7CD33EC25
:070C250033FC5002B2D5229E
:100C2C00EC30E7100FBF000C0EBE00080DBD000429
:100C3C000BEB6014A2D5EB13FCED92E7FD2274FFD5
:100C4C00FCFDFEFF22E480F8A2D574FF13FC7D802E
:030C5C00E480EF42
:0300000002149651
:0C149600787FE4F6D8FD7581070214DDB4
:100C5F00E709F608DFFA8046E709F208DFFA803E77
:100C6F0088828C83E709F0A3DFFA8032E309F60864
:100C7F00DFFA8078E309F208DFFA807088828C83CC
:100C8F00E309F0A3DFFA806489828A83E0A3F60880
:100C9F00DFFA805889828A83E0A3F208DFFA804C5A
:100CAF0080D280FA80C680D4806980F28033801031
:100CBF0080A680EA809A80A880DA80E280CA80339A
:100CCF0089828A83ECFAE493A3C8C582C8CCC58312
:100CDF00CCF0A3C8C582C8CCC583CCDFE9DEE780E2
:100CEF000D89828A83E493A3F608DFF9ECFAA9F061
:100CFF00EDFB2289828A83ECFAE0A3C8C582C8CCB7
:100D0F00C583CCF0A3C8C582C8CCC583CCDFEADECF
:100D1F00E880DB89828A83E493A3F208DFF980CC31
:100D2F0088F0EF60010E4E60C388F0ED2402B4042A
:100D3F000050B9F582EB2402B4040050AF232345D1
:060D4F008223900CAF733B
:100D5500BB010689828A83E0225002E722BBFE029C
:090D6500E32289828A83E49322CF
:100D6E00BC000BBE0029EF8DF084FFADF022E4CC69
:100D7E00F875F008EF2FFFEE33FEEC33FCEE9DEC32
:100D8E00984005FCEE9DFE0FD5F0E9E4CEFD22ED78
:100D9E00F8F5F0EE8420D21CFEADF075F008EF2FC2
:100DAE00FFED33FD4007985006D5F0F222C398FDB3
:050DBE000FD5F0EA2250
:100DC300A3F8E0C5F025F0F0E582158270021583E3
:060DD300E0C838F0E82240
:0E0DD900C3E49FFFE49EFEE49DFDE49CFC222B
:0C0DE700ECF0A3EDF0A3EEF0A3EFF0227F
:100DF300A8828583F0D083D082120E0A120E0A12C3
:100E03000E0A120E0AE473E493A3C583C5F0C583E7
:100E1300C8C582C8F0A3C583C5F0C583C8C582C849
:010E230022AC
:1014A200021062E493A3F8E493A34003F68001F2EE
:1014B20008DFF48029E493A3F85407240CC8C3334B
:1014C200C4540F4420C8834004F456800146F6DF1A
:1014D200E4800B0102040810204080900003E47EA7
:1014E200019360BCA3FF543F30E509541FFEE4930F
:1014F200A360010ECF54C025E060A840B8E493A3D6
:10150200FAE493A3F8E493A3C8C582C8CAC583CA00
:10151200F0A3C8C582C8CAC583CADFE9DEE780BEB8
:010A9900005C
:00000001FF
