:10005B0090000074FEF01200031200CD900000E03F
:10006B00FF780108800103D8FDFF900000F012001B
:0A007B00A37FF47E0112008580E2ED
:10008500EF1FAA0670011E4A6013E4FCFDC3ED9440
:0D0095003AEC940750EA0DBD00010C80F01C
:0100A200223B
:100003007F2C7E0112008543BA8090FE02E044807B
:10001300F090FE02E030E0F990FE00E0E4F0A3E0AF
:10002300E4F053BA7F53FFEF7593FFF5947591FF97
:10003300F5927595FFF59675B3FFF5B475C9FFF5A0
:10004300CA75CBFFF5CC75E1FFF5E253B1FC53B2B2
:08005300FC43B1FC53B203228F
:0700CD005395FC5396FC2241
:1000A300E4FE53A0FDEF30E70543A001800353A016
:0D00B300FE43A002EF25E0FF0EEEB408E5CD
:0100C000221D
:030000000200C13A
:0C00C100787FE4F6D8FD75810702005B33
:00000001FF
