:0F007900120003120088C290D29175805580FE4C
:10005B00EF1FAA0670011E4A6013E4FCFDC3ED946A
:0D006B003AEC940750EA0DBD00010C80F046
:010078002265
:100003007F2C7E0112005B43BA8090FE02E04480A5
:10001300F090FE02E030E0F990FE00E0E4F0A3E0AF
:10002300E4F053BA7F53FFEF7593FFF5947591FF97
:10003300F5927595FFF59675B3FFF5B475C9FFF5A0
:10004300CA75CBFFF5CC75E1FFF5E253B1FC53B2B2
:08005300FC43B1FC53B203228F
:0D0088007593007594FF5391FC4392032281
:0300000002009566
:0C009500787FE4F6D8FD75810702007941
:00000001FF
