:0B022E0012013F12021F12020A80FEA4
:1001EC00EF1FAA0670011E4A6013E4FCFDC3ED94D8
:0D01FC003AEC940750EA0DBD00010C80F0B4
:0102090022D2
:10013F007F2C7E011201EC43BA8090FE02E04480D6
:10014F00F090FE02E030E0F990FE00E0E4F0A3E072
:10015F00E4F053BA7F53FFEF7593FFF5947591FF5A
:10016F00F5927595FFF59675B3FFF5B475C9FFF563
:10017F00CA75CBFFF5CC75E1FFF5E253B1FC53B275
:08018F00FC43B1FC53B2032252
:0F021F0053B3F043B40FD2F8D2F9D2FAD2FB2284
:050003004200000000B6
:10020A00538E7F5389F0758A30758CF8C28DD28CE3
:05021A00D2A9D2AF22C1
:03000B0002000EE2
:10000E00C0E0C0F0C083C082C0D075D000C000C0B8
:10001E0002C003C004C005C006C007900001E00482
:10002E00F07006900000E004F0900000E0FAA3E00B
:10003E00FB7C037DE8FFAE02120197ED4C7002B21D
:10004E00F87C017DF4AF03AE02120197ED4C700205
:10005E00B2F9900000E0FEA3E0FF7C007DFA1201F1
:10006E0097ED4C7002B2FA900000E0FAA3E0FB7C30
:10007E00007D7DFFAE02120197ED4C7002B2FBBA0D
:10008E00030ABBE807900000E4F0A3F0D007D00607
:10009E00D005D004D003D002D000D0D0D082D083EF
:0500AE00D0F0D0E032AB
:030000000200B348
:0C00B300787FE4F6D8FD7581070200FAA2
:10019700BC000BBE0029EF8DF084FFADF022E4CC4C
:1001A700F875F008EF2FFFEE33FEEC33FCEE9DEC15
:1001B700984005FCEE9DFE0FD5F0E9E4CEFD22ED5B
:1001C700F8F5F0EE8420D21CFEADF075F008EF2FA5
:1001D700FFED33FD4007985006D5F0F222C398FD96
:0501E7000FD5F0EA2233
:1000BF0002022EE493A3F8E493A34003F68001F227
:1000CF0008DFF48029E493A3F85407240CC8C33342
:1000DF00C4540F4420C8834004F456800146F6DF11
:1000EF00E4800B0102040810204080900003E47E9E
:1000FF00019360BCA3FF543F30E509541FFEE49306
:10010F00A360010ECF54C025E060A840B8E493A3CC
:10011F00FAE493A3F8E493A3C8C582C8CAC583CAF7
:10012F00F0A3C8C582C8CAC583CADFE9DEE780BEAF
:0100080000F7
:00000001FF
