:10140100696E667261726564207465737400696ED9
:101411006672617265642073656E64204F4B00646F
:101421006174613A002020202020202020202020EB
:10143100202020202000726563656976653A204F7F
:021441004B005E
:10000300490BD0313233343536373800490BD920D8
:08001300202020202020200005
:100E6400E4900BE2F0A3F01213031216421212A242
:100E74007BFF7A147901E4FD7F011210B520B24F93
:100E84007B017A0B79D07D081211CD7BFF7A14791E
:100E94000F7D01E4FF1210B57BFF7A1479207D03E6
:100EA400E4FF1210B57B017A0B79D07D037F081221
:100EB40010B530B2FD7BFF7A1479267D01E4FF1270
:100EC40010B57BFF7A1479267D03E4FF1210B52058
:100ED400A7AB120D4ABF01A5E4900BE3F01215A2D3
:100EE400900BE3E024D9F582E4340BF583EFF09022
:100EF4000BE3E004F0E0C3940840E27BFF7A14794A
:100F0400377D02E4FF1210B57BFF7A1479207D034C
:100F1400E4FF1210B57B017A0B79D97D037F0812A7
:100F240010B57FF47E011215FC7BFF7A1479267DBF
:100F340002E4FF1210B57BFF7A1479267D03E4FFE7
:060F44001210B5020E813F
:1015FC00EF1FAA0670011E4A6013E4FCFDC3ED94B4
:0D160C003AEC940750EA0DBD00010C80F08F
:0116190022AE
:10161A00EF1FAA0670011E4A600A00007D031DED35
:04162A0060EE80FAF4
:01162E002299
:101303007F2C7E011215FC43BA8090FE02E04480DC
:10131300F090FE02E030E0F990FE00E0E4F0A3E09C
:10132300E4F053BA7F53FFEF7593FFF5947591FF84
:10133300F5927595FFF59675B3FFF5B475C9FFF58D
:10134300CA75CBFFF5CC75E1FFF5E253B1FC53B29F
:08135300FC43B1FC53B203227C
:07166D0043B10C53B2F3225C
:10150200900BF57401F0A2B382B240277F0A7E00ED
:101512001215FCA2B382B2401420B208900BF574EB
:1015220001F0800920B306900BF57402F0900BF5E0
:05153200E0FF227F0034
:011537002291
:10001B0062D009000020202020FF000000FF4020BC
:10002B003018100010301808047F0000003F4040CB
:10003B0040407800000404E424242526242424E4EE
:10004B0006040000002010190D41817F0101050DF0
:10005B0038100000020202F212121E16121212F2D5
:10006B0002020200000000FF41414141414141FFBA
:10007B000000000010129272FE51910022CC000081
:10008B00FF00000004020100FF000404040202024E
:10009B00FF010100846424242F2424A424242F246E
:1000AB0024A4640040422222120A06FF060A1222EE
:1000BB00224240004020D04C434448D8301000FC32
:1000CB000000FF0000003F4040424443780000071F
:1000DB0020403F0000804020180680000718204079
:1000EB008000000001002070282621202024386089
:1000FB00000101000010129292929292921212023F
:10010B00FE0000000000003F101010103F00408068
:10011B007F00000000000000000000000000000055
:10012B0000000000000000000000000000000000C4
:10013B000000000000FC848484FC001010101010E0
:10014B00FF101000003F1010103F00000106408010
:10015B007F00000020102CE7242400F01010FF106B
:10016B0010F000000101017F211100070202FF02C4
:10017B0002070000100C048414640506F404040444
:10018B0004140C00048484444724140C070C14241A
:10019B004484040002FA8282FE804020504C434C7F
:1001AB005020400008184884443F404458414E605A
:1001BB005847400000000000000000000000000055
:1001CB000000000000000000000000000000000024
:1001DB000000000000000000000000000000000014
:1001EB000000000000000000000000000000000004
:1001FB00000000000000F0E0A0A050F0D0D01010E4
:10020B0020E0200000001F1F12161D1B1D1D1212C7
:10021B00121F000000002020E020E02020404020A2
:10022B00A0B000000011190D07011F1911121219AE
:10023B00090C06000000206040C0A0E0B0B0E0A0B8
:10024B00A00000000101190A06013F0A0B05070B6C
:10025B001818100000000000F0F0D0D0D0D0F00043
:10026B000000000000003E1A1B1A3E003E3E2B2AE7
:10027B002A3E0200000000E0F0606060606060F009
:10028B00600000000030101615111F11111F111501
:10029B003630100000808080B0909090909090A0AD
:1002AB00808080800001080C0622203F1F0006047E
:1002BB000911010000000000000000000000000018
:1002CB000000000000000000000000000000000023
:1002DB000000000000000000000000000000000013
:1002EB00000000006100080000000000000000009A
:1002FB0000000000000000000000000000000000F3
:10030B000000000000000000F80800F80008F800EA
:10031B00033C0700073C0300F80800F80008F8004E
:10032B00033C0700073C0300F80800F80008F8003E
:10033B00033C0700073C0300000000000000000026
:10034B00003030000000000008F8888888887000B2
:10035B00203F2000030C30200070880808887000B4
:10036B00001C222121221C00C0300808080838007C
:10037B0007182020201008000000000000000000DB
:10038B000030300000000000C030080808083800BA
:10039B000718202020100800E01008080810E000C3
:1003AB000F10202020100F0008F8F800F8F80800B4
:1003BB00203F003F003F2000000000000000000035
:1003CB000000000000000000000000000000000022
:1003DB000000000000000000000000000000000012
:1003EB00000000000000000068000000000000009A
:1003FB0000000000000000000000000000FE0202F0
:10040B0002020202003F20202020202000000000DA
:10041B0000000000000000000000000000FE0202CF
:10042B0002020202003F20202020202000FE0202B8
:10043B0002020202003F20202020202000FE0202A8
:10044B0002020202003F20202020202000FE020298
:10045B0002020202003F20202020202000FE020288
:10046B0002020202003F20202020202000FE020278
:10047B0002020202003F202020202020000000006A
:10048B000000000000000000000000000000000061
:10049B000000000000000000000000000000000051
:1004AB0000000000000000000000000000FE02023F
:1004BB0002020202003F20202020202000000080AA
:1004CB00C0C08000000E07033F3F030700FE02027F
:1004DB0002020202003F20202020202000FE020208
:1004EB0002020202003F20202020202000FE0202F8
:1004FB0002020202003F20202020202000FE0202E8
:10050B0002020202003F20202020202000FE0202D7
:10051B0002020202003F20202020202000FE0202C7
:10052B0002020202003F20202020202000FE0202B7
:10053B0002020202003F20202020202000FE0202A7
:10054B0002020202003F20202020202000FE020297
:10055B0002020202003F20202020202000FE020287
:10056B0002020202003F20202020202000FE020277
:10057B0002020202003F20202020202000FE020267
:10058B0002020202003F20202020202000FE020257
:10059B0002020202003F20202020202000FE020247
:1005AB0002020202003F2020202020200000000039
:1005BB000000000000000000000000000000000030
:1005CB000000000000000000000000000000000020
:1005DB000000000000000000000000000000000010
:1005EB000000000000000000000000000000000000
:1005FB00000000000000000000000000000000F8F8
:10060B0000000000000000330000000000100C028E
:10061B00100C020000000000000000000040C07839
:10062B0040C0780000043F04043F04000070888839
:10063B00FC08300000182020FF211E00F008F0807D
:10064B006018000000310C031E211E0000F008880A
:10065B00700000001E21232C1927211000120E0000
:10066B00000000000000000000000000000000E09F
:10067B0018040200000000071820400000020418B4
:10068B00E00000000040201807000000404080F010
:10069B00804040000202010F010202000000000036
:1006AB00E0000000000101010F010101000000004A
:1006BB00000000000090700000000000000000002F
:1006CB000000000000010101010101000000000019
:1006DB0000000000003030000000000000000000AF
:1006EB00C0380400006018070000000000E010088C
:1006FB000810E000000F102020100F000000101059
:10070B00F8000000000020203F20200000700808A7
:10071B000808F0000030282422213000003008089F
:10072B00088870000018202121221C000000804046
:10073B0030F8000000060524243F242400F88888A4
:10074B00880808000019202020110E0000E01088F6
:10075B0088900000000F112020201F0000180808AF
:10076B00886818000000003E010000000070880837
:10077B0008887000001C222121221C0000F00808B0
:10078B000810E0000001122222110F00000000C02F
:10079B00C0000000000000303000000000000080AE
:1007AB0000000000000000E000000000000080409E
:1007BB0020100800000102040810200000404040F7
:1007CB00404040000002020202020200000810201A
:1007DB00408000000020100804020100007048084F
:1007EB00088870000000003037000000C030C828B7
:1007FB00E810E000071827282F2817000000C03842
:10080B00E0000000203C23020227382008F88888EB
:10081B0088700000203F202020110E00C0300808F7
:10082B0008083800071820202010080008F80808CE
:10083B000810E000203F202020100F0008F88888C7
:10084B00E8081000203F20202320180008F8888893
:10085B00E8081000203F200003000000C03008080B
:10086B000838000007182020221E020008F8080094
:10087B000008F808203F210101213F20000808F85B
:10088B00080800000020203F20200000000008087E
:10089B00F8080800C08080807F00000008F888C03E
:1008AB0028180800203F20012638200008F80800EF
:1008BB0000000000203F20202020300008F8F80026
:1008CB00F8F80800203F013E013F200008F830C037
:1008DB000008F808203F200007183F00E010080828
:1008EB000810E0000F10202020100F0008F8080857
:1008FB000808F000203F210101010000E01008086A
:10090B000810E0000F10282830504F0008F8888896
:10091B0088887000203F2000030C3020007088086E
:10092B00080838000038202121221C00180808F87C
:10093B00080818000000203F2000000008F80800FD
:10094B000008F808001F202020201F0008788800CE
:10095B0000C83808000007380E01000008F800F83E
:10096B0000F8080000033E013E03000008186880F1
:10097B008068180820302C03032C30200838C8005E
:10098B00C83808000000203F2000000010080808AD
:10099B00C83808002038262120201800000000FE4F
:1009AB00020202000000007F40404000000438C0FB
:1009BB0000000000000000010638C0000002020227
:1009CB00FE000000004040407F00000000000402D9
:1009DB000204000000000000000000000000000006
:1009EB0000000000808080808080808000020204F4
:1009FB0000000000000000000000000000008080EC
:100A0B008000000000192424123F200010F0008009
:100A1B0080000000003F112020110E00000000801C
:100A2B0080800000000E112020201100000080802B
:100A3B008090F000001F202020103F2000008080BD
:100A4B0080800000001F242424241700008080E0F5
:100A5B00909020000020203F20200000000080808C
:100A6B0080808000006B94949493600010F0008061
:100A7B0080800000203F210000203F2000809898BC
:100A8B00000000000020203F20200000000000801C
:100A9B009898000000C08080807F000010F000005C
:100AAB0080808000203F240629302000001010F8A1
:100ABB00000000000020203F20200000808080806C
:100ACB0080808000203F20003F20003F80800080FE
:100ADB0080800000203F210000203F20000080800C
:100AEB0080800000001F202020201F0080800080BD
:100AFB008000000080FF912020110E00000000807C
:100B0B0080008000000E11202091FF8080808000EB
:100B1B008080800020203F21200001000000808089
:100B2B00808080000033242424241900008080E07E
:100B3B00808000000000001F20201000808000003B
:100B4B0000808000001F202020103F20808080002C
:100B5B008080800000030C300C030000808000803C
:100B6B0080008080010E300C0738060100808080E9
:100B7B00008080000020310E2E312000808080000C
:100B8B0000808080008186781806010000808080BC
:100B9B00808080000021302C2221300000000000DA
:100BAB0000FC020200000000013E4040000000007B
:100BBB00FF00000000000000FF0000000202FC002C
:100BCB000000000040403E01000000000002010256
:100BDB000204020000000000000000000000000002
:0C0BEB00000000000000000000000000FE
:10144300900BF1EFF07F0A7E0012161A53A0FB7F78
:101453000A7E0012161A53A0F7758000900BF1E074
:1014630042807F647E0012161A43A0107F0A7E001A
:1014730012161A53A0EF7F0A7E0012161A75800007
:011483002246
:10148400900BF2EFF0A3EDF0A3EBF07F0A7E0012D5
:10149400161A900BF2E0FF1216747F0A7E001216E1
:1014A4001A900BF3E0FF12167B7F0A7E0012161AC5
:0F14B400900BF4E0FF12165C7F0A7E0002161AFE
:07167400EF44B8FF0214432C
:07167B00EF44C0FF0214431D
:09165C00EF543F4440FF02144327
:07168200EF443EFF02144398
:0413B200F583E0FFE0
:1013B600900BF1EFF07F0A7E0012161A43A0047F0D
:1013C6000A7E0012161A53A0F77F0A7E0012161A1A
:1013D60053A0EF758000900BF1E042807F647E00A1
:1013E60012161A43A0107F0A7E0012161A53A0EF97
:0B13F6007F0A7E0012161A758000228C
:10156E00EF14600C1460182402702853A0FE800340
:10157E0043A0017F0A7E0012161A53A0FD800D5360
:10158E00A0FE7F0A7E0012161A43A0027F0A7E007A
:04159E0012161A22E5
:10123B00900BE4EFF0E4F0900BE4E0FFC394085064
:10124B00557B08E4FD1215DA7D011215D37D0212D0
:10125B0015D3900BE4E0FF7B087D031215DA900B9E
:10126B00E4E0FF7B087D041215DA900BE4E0FF7BD2
:10127B00087D051215DA900BE4E0FF7B087D061262
:10128B0015DA900BE4E0FF7B087D071215DA900B63
:07129B00E4E004F080A12251
:1014C300E4900BF6F0900BF6E0FFC39440502F53DB
:1014D300A0FEEF24C0FF12144343A00153A0FD90CC
:1014E3000BF6E0FFC374FE9FFF12144353A0FD7F6E
:0E14F3000A7E0012161A900BF6E004F080C775
:0115010022C7
:1012A20012162F7F0A7E0012161AE4FF12156EE440
:1012B200FF1216827F0A7E0012161AE4FF12156EC2
:1012C2007F011216827F0A7E0012161AE4FF12159F
:1012D2006EE4FF12123B7F0A7E0012161AE4FF121E
:1012E200167B7F0A7E0012161A7F3F1216827F0A31
:1012F2007E0012161AE4FF12123B7F0A7E000216CB
:011302001AD0
:0715D300900BE4E0FF7B0830
:0415DA00AE07AC03A9
:1015DE00E4FFEED3940350030F80027F02ED25E06B
:0E15EE00FDEEC454F0FB900BE8ECF0020F4A47
:1010B500900BE4EFF0A3EDF0A3EBF0A3EAF0A3E9C6
:0110C500F03A
:1010C600E4A3F0A3F0900BE6E0FBA3E0FAA3E0F9BB
:1010D600120CEE6065900BE4E0D3940F4009E4F047
:1010E600900BEAE02402F0900BE4E0FEC394089033
:1010F6000BE950057401F080037402F0900BE9E0EF
:10110600FF900BE5E025E0FD900BEAE02DFDEE7586
:10111600F008A4FBC003900BE6E0FBA3E475F00126
:10112600120D34A9F0FA120CEE900BEEF0D0031269
:0A1136001017900BE4E004F0808B2A
:01114000228C
:0B0F4A00900BE5EFF0A3EDF0A3EBF03F
:100F55007F3F121682900BE5E0FF12156E900BE7AE
:100F6500E0543FF0900BE6E0FF121674900BE7E0BB
:100F7500FF12165CE4900BE9F0A3F0900BE9E0FE9C
:100F8500A3E0FFC39410EE64809480502D900BE88D
:100F9500E075F020A42FF582E5F03EF583E5822487
:100FA50000F582E58334091213B2900BEAE004F0F0
:100FB50070C9900BE9E004F080C1900BE6E004FFF6
:100FC500121674900BE7E0FF12165CE4900BE9F043
:100FD500A3F0900BE9E0FEA3E0FFC39410EE64805C
:100FE5009480502D900BE8E075F020A42FF582E554
:100FF500F03EF583E5822410F582E583340912136A
:10100500B2900BEAE004F070C9900BE9E004F080BF
:01101500C119
:0110160022B7
:08101700900BECEDF0A3EBF0EF
:10101F00A3E0900BF0F012156E900BEDE0543FF043
:10102F00900BECE0FF121674900BEDE0FF12165CC4
:10103F00E4900BEFF0900BEFE0FFC394085023A365
:10104F00E075F010A42FF582E435F0F583E58224E6
:10105F0000F582E58334001213B2900BEFE004F039
:10106F0080D3900BECE004FF121674900BEDE0FFB1
:10107F0012165CE4900BEFF0900BEFE0FFC39408B7
:10108F005023A3E075F010A42FF582E435F0F5831B
:10109F00E5822408F582E58334001213B2900BEF3A
:0510AF00E004F080D315
:0110B4002219
:10162F007593007594005395E05396E075A000757F
:03163F0080002206
:0816650030000000000000004D
:0D16420012166D12153843958053967F22C5
:100D4A00E4900BE6F0A3F0A3F0A3F078EA7C0B7D25
:100D5A00017BFF7A167965FE7F08120CC820A72648
:100D6A00900BE7E004F07006900BE6E004F07F32A7
:100D7A007E0012161AD3900BE7E09490900BE6E0EF
:100D8A006480948140D730A726900BE9E004F07084
:100D9A0006900BE8E004F07F327E0012161AD39018
:100DAA000BE9E094C8900BE8E06480948040D79007
:100DBA000BE6E0FEA3E0FFD39464EE6480948040E7
:100DCA0026EF94C8EE64809480501CA3E0FEA3E052
:100DDA00FF9432EE64809480400DEF9464EE648058
:100DEA00948050037F0122900BE6E0FEA3E0FFD33C
:100DFA009405EE648094804026EF940FEE6480940C
:100E0A0080501CA3E0FEA3E0FF9405EE648094806A
:100E1A00400DEF940FEE6480948050037F0222907D
:100E2A000BE6E0FEA3E0FFD39405EE6480948040D5
:100E3A0026EF940FEE64809480501CA3E0FEA3E09A
:100E4A00FF940FEE64809480400DEF942DEE648041
:090E5A00948050037F03227F0005
:010E6300226C
:05135B00900BE9EFF02A
:10136000E4A3F0F07F0112164F7FF47E0112161AEB
:10137000E4FF12164F900BEAE0FF74807E00A8078E
:10138000088006CEA2E713CE13D8F8FF900BE9E051
:10139000FDEF5D60097F017E001215FC80007FF487
:1013A0007E0112161A900BEAE004F0E0C3940840A4
:0113B000B389
:0113B1002219
:1015A200E4900BE4F0A3F0900BE4F0900BE5E0FF85
:1015B20025E0F0120D4ABF0306900BE5E004F0901F
:1015C2000BE4E004F0E0C3940840E0900BE5E0FF98
:0115D20022F6
:0E11CD00900BE4EBF0A3EAF0A3E9F0A3EDF041
:1011DB007F0112164F7F097E001215FCE4FF1216D9
:1011EB004F7F047E001215FC7FF47E0112161AE469
:1011FB00900BE8F0900BE7E0FFA3E0FEC39F501FBE
:10120B00900BE4E0FBA3E0FAA3E0F98E8275830078
:10121B00120D07FF12135B900BE8E004F080D57FF3
:10122B000112164F7F307E0212161AE4FF02164F80
:0D164F00EF600475FE8022E4F5FEC29122DA
:1015380075BA8090FFF2E4F090FFF07402F0A374A3
:1015480076F090FF107402F0A37476F0A37401F0A3
:10155800A3743BF0A37488F0E4F5BAF5FE5391FD4B
:06156800439202C2912231
:03000000021141A9
:0C114100787FE4F6D8FD75810702118864
:100BF800E709F608DFFA8046E709F208DFFA803EDF
:100C080088828C83E709F0A3DFFA8032E309F608CB
:100C1800DFFA8078E309F208DFFA807088828C8333
:100C2800E309F0A3DFFA806489828A83E0A3F608E7
:100C3800DFFA805889828A83E0A3F208DFFA804CC1
:100C480080D280FA80C680D4806980F28033801098
:100C580080A680EA809A80A880DA80E280CA803301
:100C680089828A83ECFAE493A3C8C582C8CCC58379
:100C7800CCF0A3C8C582C8CCC583CCDFE9DEE78049
:100C88000D89828A83E493A3F608DFF9ECFAA9F0C8
:100C9800EDFB2289828A83ECFAE0A3C8C582C8CC1E
:100CA800C583CCF0A3C8C582C8CCC583CCDFEADE37
:100CB800E880DB89828A83E493A3F208DFF980CC99
:100CC80088F0EF60010E4E60C388F0ED2402B40492
:100CD8000050B9F582EB2402B4040050AF23234539
:060CE8008223900C48730A
:100CEE00BB010689828A83E0225002E722BBFE0204
:090CFE00E32289828A83E4932237
:100D0700BB010CE58229F582E5833AF583E02250A1
:100D170006E92582F8E622BBFE06E92582F8E222EB
:0D0D2700E58229F582E5833AF583E4932205
:100D3400A3F8E0C5F025F0F0E58215827002158372
:060D4400E0C838F0E822CF
:10114D00020E64E493A3F8E493A34003F68001F246
:10115D0008DFF48029E493A3F85407240CC8C333A3
:10116D00C4540F4420C8834004F456800146F6DF72
:10117D00E4800B0102040810204080900003E47EFF
:10118D00019360BCA3FF543F30E509541FFEE49367
:10119D00A360010ECF54C025E060A840B8E493A32E
:1011AD00FAE493A3F8E493A3C8C582C8CAC583CA59
:1011BD00F0A3C8C582C8CAC583CADFE9DEE780BE11
:010BF70000FD
:00000001FF
