:0B009B0012001612008C1200A680FE5E
:10006E00EF1FAA0670011E4A6013E4FCFDC3ED9457
:0D007E003AEC940750EA0DBD00010C80F033
:01008B002252
:100016007F2C7E0112006E43BA8090FE02E044807F
:10002600F090FE02E030E0F990FE00E0E4F0A3E09C
:10003600E4F053BA7F53FFEF7593FFF5947591FF84
:10004600F5927595FFF59675B3FFF5B475C9FFF58D
:10005600CA75CBFFF5CC75E1FFF5E253B1FC53B29F
:08006600FC43B1FC53B203227C
:0F008C0053B3F043B40FD2C0D2C1D2C2D2C322F9
:0B00A600D2A8D288D2AAD28AD2AF2200
:030003000200B147
:0500B100B2C0B2C13233
:030013000200B632
:0500B600B2C2B2C3322A
:03000000020006F5
:0C000600787FE4F6D8FD75810702009BAE
:00000001FF
