:10014B004800083F065B4F666D7D074800000102C3
:06015B00040810204080A2
:1000E700E4900010F012008F120162E4900010F00B
:1000F700900010E0FF2400F582E43400F583E0F57A
:100107009075809074082FF582E43400F583E0F54C
:10011700807F017E0012012D900010E004F0E0C303
:06012700940840CC80C5E5
:10012D00EF1FAA0670011E4A6013E4FCFDC3ED9497
:0D013D003AEC940750EA0DBD00010C80F073
:01014A002292
:10008F007F2C7E0112012D43BA8090FE02E0448046
:10009F00F090FE02E030E0F990FE00E0E4F0A3E023
:1000AF00E4F053BA7F53FFEF7593FFF5947591FF0B
:1000BF00F5927595FFF59675B3FFF5B475C9FFF514
:1000CF00CA75CBFFF5CC75E1FFF5E253B1FC53B226
:0800DF00FC43B1FC53B2032203
:0C016200E4F5937594FFF5917592FF226F
:03000000020003F8
:0C000300787FE4F6D8FD75810702004A02
:10000F000200E7E493A3F8E493A34003F68001F220
:10001F0008DFF48029E493A3F85407240CC8C333F2
:10002F00C4540F4420C8834004F456800146F6DFC1
:10003F00E4800B010204081020408090014BE47E05
:10004F00019360BCA3FF543F30E509541FFEE493B6
:10005F00A360010ECF54C025E060A840B8E493A37D
:10006F00FAE493A3F8E493A3C8C582C8CAC583CAA8
:10007F00F0A3C8C582C8CAC583CADFE9DEE780BE60
:01016100009D
:00000001FF
