:10005B00E4900000F01200031201021200E71200FC
:10006B0093900000EFF024FE600904700CC2C0C234
:10007B00C1800EC2C2C2C38008D2C0D2C1D2C2D20A
:08008B00C3E4900000F080D6F0
:1000C900EF1FAA0670011E4A6013E4FCFDC3ED94FC
:0D00D9003AEC940750EA0DBD00010C80F0D8
:0100E60022F7
:100003007F2C7E011200C943BA8090FE02E0448037
:10001300F090FE02E030E0F990FE00E0E4F0A3E0AF
:10002300E4F053BA7F53FFEF7593FFF5947591FF97
:10003300F5927595FFF59675B3FFF5B475C9FFF5A0
:10004300CA75CBFFF5CC75E1FFF5E253B1FC53B2B2
:08005300FC43B1FC53B203228F
:0F00E70053B3F043B40FD2C0D2C1D2C2D2C3229E
:0701020043B10C53B2F322DC
:100093009000017401F0A2B382B240277F0A7E0070
:1000A3001200C9A2B382B2401420B20890000174B6
:1000B30001F0800920B3069000017402F090000162
:0500C300E0FF227F00B8
:0100C8002215
:030000000200F605
:0C00F600787FE4F6D8FD75810702005BFE
:00000001FF
